:020000040000FA
:06000000EFEF0BF012000F
:080008009D50400B0CE09E50DE
:10001000400B09E00001ED0505E18150200B02E0F5
:100020004AEC00F09E9C9E50200B2BE09D50200B34
:1000300028E09E9AAE50E66E7EEC07F0E552000195
:1000400000019A51800B1DE0000100016051800BFE
:1000500018E0030E0001625D00E10001010EED6F8A
:100060000001625100E1010EE66E1DEC03F0E55265
:100070000F0E0001625D00E10E0EE66E1DEC03F056
:06008000E5521100120020
:0A008600010036180000EA00000037
:040090000300000069
:0C0094001FD8280E0101085D03E05F0E7C
:1000A000085D04E30F0E08270001EE89370E0101F9
:1000B000085D04E10001EEB1EE83EE816E0E0101F8
:1000C000085D07E30001EEB1EE830101086B00015A
:1000D000EE81120001010851082BEA6A090FE96E4E
:1000E000010EEA22C4CFEFFF0851082BEA6A090F7C
:1000F000E96E010EEA22C3CFEFFF120001010851A1
:10010000082BEA6A090FE96E010EEA22EAC0EFFF46
:100110000851082BEA6A090FE96E010EEA22EAC0CB
:10012000EFFF120001010851082BEA6A090FE96E7E
:10013000010EEA22EAC0EFFF0851082BEA6A090F14
:10014000E96E010EEA22EAC0EFFF0851082BEA6AC5
:10015000090FE96E010EEA22EAC0EFFF0851082BF1
:10016000EA6A090FE96E010EEA22EAC0EFFF0851C0
:10017000082BEA6A090FE96E010EEA22EAC0EFFFD6
:100180000851082BEA6A090FE96E010EEA22EAC05B
:10019000EFFF0851082BEA6A090FE96E010EEA2207
:1001A000EAC0EFFF0851082BEA6A090FE96E010E59
:1001B000EA22EAC0EFFF0851082BEA6A090FE96E4C
:1001C000010EEA22EAC0EFFF0851082BEA6A090F84
:1001D000E96E010EEA22EAC0EFFF0851082BEA6A35
:1001E000090FE96E010EEA22EAC0EFFF0851082B61
:1001F000EA6A090FE96E010EEA22EAC0EFFFEAC0DF
:1002000000F0016A00BE0168D890015004E6FF0EBC
:10021000005C000E015802E30001EA6B12000001CD
:10022000DA51DA2BEA6A090FE96E010EEA22EBC015
:10023000EFFFDA51DA2BEA6A090FE96E010EEA22C2
:10024000ECC0EFFF0001EB2B000EEC2312000001CD
:10025000DD2B000EDE23FA0EDEAF02D0D89003D0E5
:10026000DD5D000EDE5903E3DD6BDE6B80728050D6
:10027000020B01E0010EE66EDA51DA2BEA6A090F91
:10028000E96E010EEA22E552E750EF6E1200370EDA
:100290000101085D03E200015F0E02D00001280E9B
:1002A000DA6F8B94010EE66EFDEC0BF0E552BB0E9F
:1002B000E66E4DEC0BF0E552C7A0FED7B8EC0BF0A4
:1002C000E66E0001DA51DA2BEA6A090FE96E010ED7
:1002D000EA22E552E750EF6E8B84010EE66EFDECEC
:1002E0000BF0E5528B94010EE66EFDEC0BF0E5523F
:1002F000BC0EE66E4DEC0BF0E552C7A0FED7B8EC95
:100300000BF0E66E0001DA51DA2BEA6A090FE96EAA
:10031000010EEA22E552E750EF6E8B84010EE66E85
:10032000FDEC0BF0E5528B94010EE66EFDEC0BF04C
:10033000E552BD0EE66E4DEC0BF0E552C7A0FED7C0
:10034000B8EC0BF0E66E0001DA51DA2BEA6A090F1D
:10035000E96E010EEA22E552E750EF6E8B84010E42
:10036000E66EFDEC0BF0E5528B94010EE66EFDECB3
:100370000BF0E552BE0EE66E4DEC0BF0E552C7A059
:10038000FED7B8EC0BF0E66E0001DA51DA2BEA6A20
:10039000090FE96E010EEA22E552E750EF6E8B84F9
:1003A000010EE66EFDEC0BF0E5528B94010EE66E4D
:1003B000FDEC0BF0E552BF0EE66E4DEC0BF0E55296
:1003C000C7A0FED7B8EC0BF0E66E0001DA51DA2BCD
:1003D000EA6A090FE96E010EEA22E552E750EF6E74
:1003E0008B84010EE66EFDEC0BF0E5528B94010E52
:1003F000E66EFDEC0BF0E552C00EE66E4DEC0BF038
:10040000E552C7A0FED7B8EC0BF0E66E0001DA515A
:10041000DA2BEA6A090FE96E010EEA22E552E7508B
:10042000EF6E8B84010EE66EFDEC0BF0E5528B94C3
:10043000010EE66EFDEC0BF0E552C30EE66E4DECE0
:100440000BF0E552C7A0FED7B8EC0BF0E66E00014A
:10045000DA51DA2BEA6A090FE96E010EEA22E55257
:10046000E750EF6E8B84010EE66EFDEC0BF0E5526B
:100470008B94010EE66EFDEC0BF0E552C40EE66EB9
:100480004DEC0BF0E552C7A0FED7B8EC0BF0E66ED2
:100490000001DA51DA2BEA6A090FE96E010EEA224D
:1004A000E552E750EF6E8B84010EE66EFDEC0BF02B
:1004B000E5528B94010EE66EFDEC0BF0E552C50E95
:1004C000E66E4DEC0BF0E552C7A0FED7B8EC0BF092
:1004D000E66E0001DA51DA2BEA6A090FE96E010EC5
:1004E000EA22E552E750EF6E8B84010EE66EFDECDA
:1004F0000BF0E5528B94010EE66EFDEC0BF0E5522D
:10050000C60EE66E4DEC0BF0E552C7A0FED7B8EC78
:100510000BF0E66E0001DA51DA2BEA6A090FE96E98
:10052000010EEA22E552E750EF6E8B84010EE66E73
:10053000FDEC0BF0E5528B94010EE66EFDEC0BF03A
:10054000E552C70EE66E4DEC0BF0E552C7A0FED7A4
:10055000B8EC0BF0E66E0001DA51DA2BEA6A090F0B
:10056000E96E010EEA22E552E750EF6E8B84010E30
:10057000E66EFDEC0BF0E5528B94010EE66EFDECA1
:100580000BF0E552C80EE66E4DEC0BF0E552C7A03D
:10059000FED7B8EC0BF0E66E0001DA51DA2BEA6A0E
:1005A000090FE96E010EEA22E552E750EF6E8B84E7
:1005B000010EE66EFDEC0BF0E55212000001EE912B
:1005C000ACA2FED7AA0EAD6EACA2FED79BC0ADFF0B
:1005D000ACA2FED73B0EAD6E370E0101085D16E2F0
:1005E0000101C96B370EC95D0EE2ACA2FED7370E12
:1005F0000101C925EA6A090FE96E010EEA22EF50EE
:10060000AD6EC92BEFD7ACA2FED714D00101C96BD8
:10061000370EC95D0DE2ACA2FED70101C951EA6AED
:10062000090FE96E010EEA22EF50AD6EC92BF0D72B
:10063000ACA2FED7AB0EAD6E1200D9CFE6FFE1CF74
:10064000D9FFACA2FED7AA0EAD6EACA2FED7800E2B
:10065000AD6EACA2FED7FE0EDB50AD6EACA2FED7E7
:10066000FE0EDB50800FAD6EACA2FED7AB0EAD6EB2
:10067000E552E7CFD9FF1200D39EB88250D881BA95
:10068000FED702D803001200F40E006E140E016EA5
:10069000026A00C0E6FFE66E02C0E6FF780EE66E74
:1006A000010EE66ED9EC0AF0036E050EE15E035012
:1006B000780EE66E010EE66EF2EC0AF0E552E552B7
:1006C000F3CF77F10101F350772BEA6A780FE96EE7
:1006D000010EEA220D0EEF6E7751772BEA6A780F42
:1006E000E96E010EEA220A0EEF6E0101C96B0101EB
:1006F00077510101C95D0DE2C951EA6A780FE96ECF
:10070000010EEA22EF50AD6EACA2FED70101C92B5B
:10071000EED70A0EE66ECFEC0BF0E55212008B948A
:100720006B0EE66E4DEC0BF0E5520A0EE66ECFEC6A
:100730000BF0E552400EE66E4DEC0BF0E5528B846B
:100740000A0EE66ECFEC0BF0E55212004F0EAB1620
:10075000AC9ACF0E9D164F0E7116729ACF0EA3163D
:10076000C69A6C9A16EF0CF00001DB6BDC6B0E0E78
:10077000E66E100EE66EAB0EE66E7FEC0AF0E5520A
:10078000E552E5520F0EC16E19EC0CF011EC0CF0B5
:100790000009FCE108EC0CF0F3CFDBF0F4CFDCF067
:1007A0000001DF6BF43413E2DB518408030EDC55E7
:1007B0000EE20101C96B060EC95D5BE28272640E36
:1007C000E66EA1EC0BF0E5520101C92BF4D7DC3544
:1007D00027E2DB51BC08020EDC5522E2DC3504E2E4
:1007E000DB518408030EDC551BE30101C96B040EC9
:1007F000C95D09E28272640EE66EA1EC0BF0E5526F
:100800000101C92BF4D7C96B020EC95D32E28078B1
:10081000640EE66EA1EC0BF0E5520101C92BF4D792
:10082000DC352CE2DB51F408010EDC5527E2DC3527
:1008300004E2DB51BC08020EDC5520E30101C96B68
:10084000020EC95D09E28272640EE66EA1EC0BF045
:10085000E5520101C92BF4D7C96B040EC95D09E249
:100860008078640EE66EA1EC0BF0E5520101C92B15
:10087000F4D782820001010EDF6F11D00101C96B34
:10088000060EC95D09E28078640EE66EA1EC0BF0FD
:10089000E5520101C92BF4D780880001DF6B16EF08
:0208A0000CF05A
:0E08A200700ED36E0F01210E386F926E396BFF
:1008B000A50E936E618E618C3A6B900E946E82924F
:1008C000829080980001EE6B0101086B00019B8112
:1008D0009B839B959B979B999B9F9B8B0DD8B4EC7F
:1008E00003F047D874D84BDA640EE66ECFEC0BF009
:1008F000E55245DA79EF07F09D8CD08EF18CF288C5
:10090000628AF28C9D8AA38A9F8AF28E120001016C
:10091000E70E046F056905C102F1E8CF00F105C1DA
:10092000D7FFD66E940EE66E6BEC0BF0E552D59EBB
:10093000120001019C0E066F076907C103F1E8CFA1
:1009400001F107C1CFFFCE6EE66ABB0EE66EAFECDB
:100950000AF0E552E552CD901200FC0EE66E830ED1
:10096000E66EEB0EE66E7FEC0AF0E552E552E552DC
:1009700012007F0EE66E800EE66EEB0EE66E7FECEA
:100980000AF0E552E552E5527F0EE66E1B0EE66E6A
:10099000AFEC0AF0E552E5520F0148954897640E16
:1009A000556F566B54815483549554871200100E22
:1009B0000001EF6FF06BE66EF0C0E6FF580EE66EDA
:1009C00013EC0AF0E552E552E552B8861200220E09
:1009D0000001EF6FF06B0101966BE66EF0C0E6FF71
:1009E0003C0EE66E13EC0AF0E552E552E552B8868D
:1009F000640EE66ECFEC0BF0E552F10E006E140EB5
:100A0000016E026A00C0E6FFE66E02C0E6FF780EE5
:100A1000E66E010EE66ED9EC0AF0036E050EE15E9D
:100A20000350780EE66E010EE66EF2EC0AF0E55227
:100A3000E552F3CF77F10101F350772BEA6A780F93
:100A4000E96E010EEA220D0EEF6E7751772BEA6AFE
:100A5000780FE96E010EEA220A0EEF6E0101C96BF2
:100A6000010177510101C95D0DE2C951EA6A780FB0
:100A7000E96E010EEA22EF50AD6EACA2FED7010185
:100A8000C92BEED7640EE66ECFEC0BF0E552DE0E0E
:100A9000006E140E016E026A00C0E6FFE66E02C030
:100AA000E6FF780EE66E010EE66ED9EC0AF0036EF4
:100AB000050EE15E0350780EE66E010EE66EF2EC76
:100AC0000AF0E552E552F3CF77F10101F350772BAD
:100AD000EA6A780FE96E010EEA220D0EEF6E775189
:100AE000772BEA6A780FE96E010EEA220A0EEF6EA2
:100AF0000101C96B010177510101C95D0DE2C951C5
:100B0000EA6A780FE96E010EEA22EF50AD6EACA2F0
:100B1000FED70101C92BEED7640EE66ECFEC0BF0C9
:100B2000E552CB0E006E140E016E026A00C0E6FFA5
:100B3000E66E02C0E6FF780EE66E010EE66ED9ECB8
:100B40000AF0036E050EE15E0350780EE66E010EAC
:100B5000E66EF2EC0AF0E552E552F3CF77F10101CF
:100B6000F350772BEA6A780FE96E010EEA220D0E38
:100B7000EF6E7751772BEA6A780FE96E010EEA2261
:100B80000A0EEF6E0101C96B010177510101C95DC8
:100B90000DE2C951EA6A780FE96E010EEA22EF50C0
:100BA000AD6EACA2FED70101C92BEED7640EE66E86
:100BB000CFEC0BF0E552B80E006E140E016E026A17
:100BC00000C0E6FFE66E02C0E6FF780EE66E010E9C
:100BD000E66ED9EC0AF0036E050EE15E0350780E66
:100BE000E66E010EE66EF2EC0AF0E552E552F3CF46
:100BF00077F10101F350772BEA6A780FE96E010E65
:100C0000EA220D0EEF6E7751772BEA6A780FE96EC4
:100C1000010EEA220A0EEF6E0101C96B0101775144
:100C20000101C95D0DE2C951EA6A780FE96E010E52
:100C3000EA22EF50AD6EACA2FED70101C92BEED770
:100C4000640EE66ECFEC0BF0E5529C0E006E140EB7
:100C5000016E026A00C0E6FFE66E02C0E6FF780E93
:100C6000E66E010EE66ED9EC0AF0036E050EE15E4B
:100C70000350780EE66E010EE66EF2EC0AF0E552D5
:100C8000E552F3CF77F10101F350772BEA6A780F41
:100C9000E96E010EEA220D0EEF6E7751772BEA6AAC
:100CA000780FE96E010EEA220A0EEF6E0101C96BA0
:100CB000010177510101C95D0DE2C951EA6A780F5E
:100CC000E96E010EEA22EF50AD6EACA2FED7010133
:100CD000C92BEED7640EE66ECFEC0BF0E552980E02
:100CE000006E140E016E026A00C0E6FFE66E02C0DE
:100CF000E6FF780EE66E010EE66ED9EC0AF0036EA2
:100D0000050EE15E0350780EE66E010EE66EF2EC23
:100D10000AF0E552E552F3CF77F10101F350772B5A
:100D2000EA6A780FE96E010EEA220D0EEF6E775136
:100D3000772BEA6A780FE96E010EEA220A0EEF6E4F
:100D40000101C96B010177510101C95D0DE2C95172
:100D5000EA6A780FE96E010EEA22EF50AD6EACA29E
:100D6000FED70101C92BEED7C80EE66ECFEC0BF013
:100D7000E5524F0EAB16AC9ACF0E9D1612008B8427
:100D8000E66AE66A010EE66E27EC0BF0E552E552E4
:100D9000E5520A0EE66ECFEC0BF0E5528B946A0E2C
:100DA000E66E4DEC0BF0E5520A0EE66ECFEC0BF062
:100DB000E552100EE66E4DEC0BF0E5528B840A0EF8
:100DC000E66ECFEC0BF0E5528B946B0EE66E4DECBD
:100DD0000BF0E5520A0EE66ECFEC0BF0E552E66A38
:100DE0004DEC0BF0E5528B840A0EE66ECFEC0BF067
:100DF000E5528B94F50EE66E4DEC0BF0E552C7A074
:100E0000FED7B8EC0BF00101CB6F8B840A0EE66EB7
:100E1000CFEC0BF0E5528B941B0EE66E4DEC0BF015
:100E2000E5520A0EE66ECFEC0BF0E5520101020E20
:100E3000CC6FE850080DF350E66E4DEC0BF0E55228
:100E40008B840A0EE66ECFEC0BF0E5528B941C0EF1
:100E5000E66E4DEC0BF0E5520A0EE66ECFEC0BF0B1
:100E6000E5520101020ECD6FE850080DF350E66E19
:100E70004DEC0BF0E5528B840A0EE66ECFEC0BF0D6
:100E8000E5520101CC6B0101CD6B8B949B0EE66E9C
:100E90004DEC0BF0E552C7A0FED7B8EC0BF0180BE9
:100EA000E840E840E8401F0B0101CC6F8B840A0E3C
:100EB000E66ECFEC0BF0E5528B949C0EE66E4DEC9B
:100EC0000BF0E552C7A0FED7B8EC0BF0180BE840CA
:100ED000E840E8401F0B0101CD6F8B84640EE66E85
:100EE000CFEC0BF0E5520A0EE66ECFEC0BF0E552BC
:020EF0001200EE
:0E0EF20000019A6B9A8FD56B1200D9CFE6FFE4
:100F0000E1CFD9FFE652FE0EDB50AB0A19E0040A2E
:100F10000CE0050A04E000019AAF64D01DD0000186
:100F2000606B616B996B9A6B7FD000019A51800B5B
:100F300003E19A51100B02E09A8576D09A8974D019
:100F400000019A51800B08E16151006E016A010EA7
:100F5000005C000E015802E29A8366D060C099F0EE
:100F6000DF6A6105DF5C2EE2DF50EA6A620FE96E3C
:100F7000000EEA22EF50AA0812E0DF50EA6A620F80
:100F8000E96E000EEA22EF50AB0809E0DF50EA6A92
:100F9000620FE96E000EEA22EF50AF0809E1DF5060
:100FA000EA6A620FE96E000EEA22EF507F0B07D06B
:100FB000DF50EA6A620FE96E000EEA22EF509927CD
:100FC000DF2ACFD7000161076151EA6A620FE96E3B
:100FD000000EEA22EF50995D02E09A8725D09A8FA1
:100FE0009A8D22D09A51006E016A0050011008E1DA
:100FF0009A8BFE0EDBCF60F09AA916D0608F13D0CB
:10100000612B6105EA6A620FE96E000EEA22FE0EAC
:10101000DBCFEFFF9AA908D06105EA6A620FE96E9B
:10102000000EEA22EF8E9A99E552E552E7CFD9FFFA
:101030001200D9CFE6FFE1CFD9FFE652ACA2FED72E
:10104000AA0EAD6EACA2FED7C40EDB50AD6EC40EC0
:10105000DB50E76EFD0EE7CFDBFFDF6AC50EDB047A
:10106000DF5C64E2D950C60F006EFF0EDA20016E1D
:10107000DF500024E96E000E0120EA6EEF50AA084E
:101080001EE0D950C60F026EFF0EDA20036EDF504D
:101090000224E96E000E0320EA6EEF50AB080FE069
:1010A000D950C60F046EFF0EDA20056EDF500424FF
:1010B000E96E000E0520EA6EEF50AF0811E1ACA218
:1010C000FED7AF0EAD6ED950C60F006EFF0EDA2000
:1010D000016EDF500024E96E000E0120EA6EEF9EE3
:1010E000ACA2FED7D950C60F006EFF0EDA20016EFB
:1010F000DF500024E96E000E0120EA6EEF50AD6E65
:10110000D950C60F006EFF0EDA20016EDF500024AA
:10111000E96E000E0120EA6EFD0EDBCFE7FFEF5017
:10112000E726FD0EE7CFDBFFDF2A98D7FD0EDB5069
:10113000AA0808E0FD0EDB50AB0804E0FD0EDB5012
:10114000AF0806E1ACA2FED7AF0EAD6EFD0EDB9E82
:10115000ACA2FED7FD0EDB50AD6EACA2FED7AB0E3F
:10116000AD6EFE0EDB9CE552E552E7CFD9FF1200D3
:10117000D9CFE6FFE1CFD9FFE6520001AA0E9D6F5D
:10118000FD0EDBCFE9FFFE0EDBCFEAFFEF50AA0832
:1011900001E1F5D0FD0EDBCFE9FFFE0EDBCFEAFF6C
:1011A000EF50AB0801E1EBD0FD0EDBCFE9FFFE0E07
:1011B000DBCFEAFFEF50AF0801E1E1D0FD0EDBCF5E
:1011C000E9FFFE0EDBCFEAFFEFCF9BF0FD0EDBCF9A
:1011D000E9FFFE0EDBCFEAFFEFCF9EF0020E9C6F21
:1011E000FD0EDBCFE9FFFE0EDBCFEAFFEFCFD4F041
:1011F000DF6AFD0EDBCFE9FFFE0EDBCFEAFFEE522A
:10120000EF04DF5C01E38DD0FD0EDBCFE9FFFE0EC6
:10121000DBCFEAFF020EE926000EEA22DF500F01C3
:10122000E924E96E000EEA20EA6EEF50AA0826E0F3
:10123000FD0EDBCFE9FFFE0EDBCFEAFF020EE92653
:10124000000EEA22DF50E924E96E000EEA20EA6E81
:10125000EF50AB0813E0FD0EDBCFE9FFFE0EDBCF56
:10126000EAFF020EE926000EEA22DF50E924E96EC9
:10127000000EEA20EA6EEF50AF081EE100019C511B
:101280009C2BEA6A9D0FE96E000EEA22AF0EEF6E0C
:101290009C5175E0FD0EDBCFE9FFFE0EDBCFEAFFD0
:1012A000020EE926000EEA22DF500F01E924E96E62
:1012B000000EEA20EA6EEF9EFD0EDBCFE9FFFE0E88
:1012C000DBCFEAFF020EE926000EEA22DF50E92416
:1012D000E96E000EEA20EA6EEF50E66E00019C51C6
:1012E0009C2BEA6A9D0FE96E000EEA22E552E75058
:1012F000EF6E9C5144E0FD0EDBCFE9FFFE0EDBCF2D
:10130000EAFF020EE926000EEA22DF500F01E9246F
:10131000E96E000EEA20EA6EEF500001D427DF2AC2
:1013200068D7AA0ED45D06E0AB0ED45D03E0AF0E25
:10133000D45D0AE19C519C2BEA6A9D0FE96E000E78
:10134000EA22AF0EEF6ED49F9C519C2BEA6A9D0F50
:10135000E96E000EEA22D4C0EFFF9C519C2BEA6A92
:101360009D0FE96E000EEA22AB0EEF6E9C51006EEF
:10137000016A040E005C000E015801E3D58DE552B0
:08138000E552E7CFD9FF12008E
:08138800860EF66E000EF76EF2
:10139000000EF86E00010900F550E56F0900F550E8
:1013A000E66F03E1E56701D03DD00900F550E06F3D
:1013B0000900F550E16F0900F550E26F09000900DE
:1013C000F550E96E0900F550EA6E090009000900C0
:1013D000F550E36F0900F550E46F09000900F6CFFE
:1013E000E7F0F7CFE8F0F8CFE9F0E0C0F6FFE1C0B2
:1013F000F7FFE2C0F8FF0001E35302E1E45307E026
:101400000900F550EE6EE307F8E2E407F9D7E7C00C
:10141000F6FFE8C0F7FFE9C0F8FF0001E507000E9E
:06142000E65BBFD71200DD
:0A142600D9CFE6FFDACFE6FFE1CFF1
:10143000D9FFE2CFDAFFAC6AAB6AFD0EDBB0AC8855
:10144000DBA202D0AC8CAB8CDBB4AC8EDBA602D0C2
:10145000AB8801D0AB8ADBB8AC84DBBAAB86DBAC43
:1014600002D09D8A01D09D9ADBAE02D09D8801D02A
:101470009D98FB0EDB50AF6EFC0EDBCF01F001C080
:1014800000F0016A0050B06EAC8AAB8EE552E5CF39
:08149000DAFFE7CFD9FF1200DB
:08149800534554005345542054
:1014A000434F4E54524F4C2042415544203233302A
:1014B0003430302C384E310053455420434F4E5475
:1014C000524F4C2043442034203000534554204296
:1014D000542041555448202A20313233340053459A
:1014E00054204254204E414D4520536F6D6E6F3154
:0E14F0000041540053455420534C45455000D4
:0214FE00D9CF44
:10150000E6FFDACFE6FFE1CFD9FFE2CFDAFFC26A2A
:10151000C16AC06AFC0EDB507C0BC26EFB0EDB5056
:10152000C16EFD0EDB50040DF350380B016EFD0E45
:10153000DB380F0B070B006EFD0EDB50800B00102D
:101540000110C06EFC0EDBAE03D09E9C9D8CF28C15
:0E155000C280E552E5CFDAFFE7CFD9FF1200E7
:02155E00D9CFE3
:10156000E6FFDACFE6FFE1CFD9FFE2CFDAFFFC0EEC
:10157000DB50F30BCC6EFD0EDB507F0BE824CD6E01
:10158000CF6ACE6A9E90FD0EDBAE02D09D8001D068
:101590009D90A490FC0EDBA402D0A38001D0A39068
:1015A000CCBECC86CD80E552E5CFDAFFE7CFD9FFC0
:0215B000120027
:0E15B200FB0EE3CFF6FFFC0EE3CFF7FFFD0EBE
:1015C000E3CFF8FFFE0EE3CFE9FFFF0EE3CFEAFF24
:1015D000E9CFF3FFEACFF4FF0900F5CFEFFFEE66A6
:1015E000FBD71200FE0EE3CFE9FFFF0EE3CFEAFFC9
:1015F000F36AF46AEE5203E0F34AF42AFBD71200CE
:10160000C2900001ED6B828281BA04D082A0FCD727
:101610008290FAD78280D7EC04F00001ED6BED5197
:1016200003E18150200BFBE18292C2800001ED05B5
:10163000E7E18150200BE4E0EEA1F8D747EC01F0A0
:0E1640000FEC01F027EC01F0DEEC02F0EFD72A
:02164E00D9CFF2
:10165000E6FFDACFE6FFE1CFD9FFE2CFDAFF3F0EB8
:10166000C716C66AFD0EDB50C612FB0EDB50C71252
:10167000FC0EDB50030A09E0010A04E0020A06E15D
:10168000C78C04D0C78CC68801D0C688C68AE552EC
:0A169000E5CFDAFFE7CFD9FF120023
:06169A00D9CFE6FFDACF14
:1016A000E6FFE1CFD9FFE2CFDAFFE652C950DF6EA5
:1016B0009E96C69EFD0EDB50C96EC6AE02D0FF0ED2
:1016C00003D09EA6FED7000EE552E552E5CFDAFF25
:0616D000E7CFD9FF120074
:0A16D600D9CFE6FFDACFE6FFE1CF3F
:1016E000D9FFE2CFDAFFFD0EDB507F0BD56ED76A54
:1016F000D66AF294FD0EDBAE02D0F28A01D0F29AE5
:0E170000D58EE552E5CFDAFFE7CFD9FF120014
:02170E00536F17
:101710006D6E6F536F756E640056657273696F6E90
:1017200020302E310032362E2053657074656D6284
:10173000657220323031340048532D554C4D0043F2
:021740004B005C
:0E174200FF0EE350096EEF0E01D0F30EE76EBE
:10175000E72EA8EF0BF00C0E086EE76AE72EAEEF4F
:101760000BF0082EADEF0BF0092EA6EF0BF01200D8
:10177000D9CFE6FFDACFE6FFE1CFD9FFE2CFDAFF3C
:10178000E652C950DF6E9E96C96A9EA6FED7C95022
:0E179000E552E552E5CFDAFFE7CFD9FF1200B0
:02179E00FF0E3C
:1017A000E350096E480E01D04C0EE76EE72EFED7CF
:0E17B000E76AE72EFED7092EF7D700001200D9
:0217BE00000E1B
:1017C000F36E00EE00F0030E01D81200EA6002D0C2
:0E17D000EE6AFCD7F350E9601200EE6AFCD717
:0217DE0012EE09
:1017E00000F022EE00F0F86A079CC4EC09F051EC1E
:0A17F00004F000EC0BF0FBD7120030
:0617FA00FF0EE350E84E73
:101800001200000000D000D000D0E82EFAD712005D
:10181000C450036E026AC3500210F36E03C0F4FF9B
:021820001200B4
:0A182200C250020B01E0010E12009B
:04182C00C2909D9C2D
:021830001200A4
:04183200C28212005C
:03183600030000AC
:020000040030CA
:0100010028D6
:0100020019E4
:010003003CC0
:01000500BD3D
:0100060001F8
:00000001FF
