:020000040000FA
:06000000F5EF0AF012000A
:080008009E50010B0AE09D501F
:10001000010B07E01FEC0BF003C1CFFF01C1CEFFC6
:100020009E909D50400B06E09E50400B03E0000167
:10003000E2899E9C9E50200B2BE09D50200B28E0D7
:100040009E9AAE50E66EF8EC06F0E5520001000113
:100050009751800B1DE0000100016051800B18E0FA
:10006000030E0001625D00E10001010EE16F00017D
:10007000625100E1050EE66EDFEC02F0E5520F0E74
:100080000001625D00E11A0EE66EDFEC02F0E5525F
:040090001100120049
:0C0094000100BD130000E50000000100A9
:0200A00000005E
:0E00A2001CD8280E0101085D03E05C0E085D0D
:1000B00001E3B9D8340E0101085D04E10001E2B1A9
:1000C000E283E281680E0101085D07E30001E2B10D
:1000D000E2830101086B0001E28112000101085175
:1000E000082BEA6A090FE96E010EEA22C4CFEFFF7E
:1000F0000851082BEA6A090FE96E010EEA22C3CF04
:10010000EFFF120001010851082BEA6A090FE96E9E
:10011000010EEA22E5C0EFFF0851082BEA6A090F39
:10012000E96E010EEA22E5C0EFFF1200010108515D
:10013000082BEA6A090FE96E010EEA22E5C0EFFF1B
:100140000851082BEA6A090FE96E010EEA22E5C0A0
:10015000EFFF0851082BEA6A090FE96E010EEA2247
:10016000E5C0EFFF0851082BEA6A090FE96E010E9E
:10017000EA22E5C0EFFF0851082BEA6A090FE96E91
:10018000010EEA22E5C0EFFF0851082BEA6A090FC9
:10019000E96E010EEA22E5C0EFFF0851082BEA6A7A
:1001A000090FE96E010EEA22E5C0EFFF0851082BA6
:1001B000EA6A090FE96E010EEA22E5C0EFFF085175
:1001C000082BEA6A090FE96E010EEA22E5C0EFFF8B
:1001D0000851082BEA6A090FE96E010EEA22E5C010
:1001E000EFFF0851082BEA6A090FE96E010EEA22B7
:1001F000E5C0EFFF0851082BEA6A090FE96E010E0E
:10020000EA22E5C0EFFFE5C000F0016A00BE016828
:10021000D890015004E6FF0E005C000E015802E386
:100220000001E56B12008B94010EE66E03EC0BF0FF
:10023000E552BB0EE66E53EC0AF0E552C7A0FED7BE
:10024000BEEC0AF0E66E01010851082BEA6A090FBC
:10025000E96E010EEA22E552E750EF6E8B84010E43
:10026000E66E03EC0BF0E5528B94010EE66E03ECA8
:100270000BF0E552BC0EE66E53EC0AF0E552C7A057
:10028000FED7BEEC0AF0E66E01010851082BEA6ABF
:10029000090FE96E010EEA22E552E750EF6E8B84FA
:1002A000010EE66E03EC0BF0E5528B94010EE66E48
:1002B00003EC0BF0E552BD0EE66E53EC0AF0E5528E
:1002C000C7A0FED7BEEC0AF0E66E01010851082B6C
:1002D000EA6A090FE96E010EEA22E552E750EF6E75
:1002E0008B84010EE66E03EC0BF0E5528B94010E4D
:1002F000E66E03EC0BF0E552BE0EE66E53EC0AF030
:10030000E552C7A0FED7BEEC0AF0E66E0101085127
:10031000082BEA6A090FE96E010EEA22E552E7505E
:10032000EF6E8B84010EE66E03EC0BF0E5528B94BE
:10033000010EE66E03EC0BF0E552BF0EE66E53ECD9
:100340000AF0E552C7A0FED7BEEC0AF0E66E010146
:100350000851082BEA6A090FE96E010EEA22E552FC
:10036000E750EF6E8B84010EE66E03EC0BF0E55266
:100370008B94010EE66E03EC0BF0E552C00EE66EB8
:1003800053EC0AF0E552C7A0FED7BEEC0AF0E66EC9
:1003900001010851082BEA6A090FE96E010EEA22F1
:1003A000E552E750EF6E8B84010EE66E03EC0BF026
:1003B000E5528B94010EE66E03EC0BF0E552C30E92
:1003C000E66E53EC0AF0E552C7A0FED7BEEC0AF089
:1003D000E66E01010851082BEA6A090FE96E010E69
:1003E000EA22E552E750EF6E8B84010EE66E03ECD5
:1003F0000BF0E5528B94010EE66E03EC0BF0E55228
:10040000C40EE66E53EC0AF0E552C7A0FED7BEEC70
:100410000AF0E66E01010851082BEA6A090FE96E3D
:10042000010EEA22E552E750EF6E8B84010EE66E74
:1004300003EC0BF0E5528B94010EE66E03EC0BF02F
:10044000E552C50EE66E53EC0AF0E552C7A0FED7A2
:10045000BEEC0AF0E66E01010851082BEA6A090FAA
:10046000E96E010EEA22E552E750EF6E8B84010E31
:10047000E66E03EC0BF0E5528B94010EE66E03EC96
:100480000BF0E552C60EE66E53EC0AF0E552C7A03B
:10049000FED7BEEC0AF0E66E01010851082BEA6AAD
:1004A000090FE96E010EEA22E552E750EF6E8B84E8
:1004B000010EE66E03EC0BF0E5528B94010EE66E36
:1004C00003EC0BF0E552C70EE66E53EC0AF0E55272
:1004D000C7A0FED7BEEC0AF0E66E01010851082B5A
:1004E000EA6A090FE96E010EEA22E552E750EF6E63
:1004F0008B84010EE66E03EC0BF0E5528B94010E3B
:10050000E66E03EC0BF0E552C80EE66E53EC0AF013
:10051000E552C7A0FED7BEEC0AF0E66E0101085115
:10052000082BEA6A090FE96E010EEA22E552E7504C
:10053000EF6E8B84010EE66E03EC0BF0E5521200B9
:100540000001E291ACA2FED7AA0EAD6EACA2FED71E
:1005500098C0ADFFACA2FED7380EAD6E340E0101CF
:10056000085D16E20101C36B340EC35D0EE2ACA25E
:10057000FED7340E0101C325EA6A090FE96E010EA8
:10058000EA22EF50AD6EC32BEFD7ACA2FED714D04A
:100590000101C36B340EC35D0DE2ACA2FED70101B5
:1005A000C351EA6A090FE96E010EEA22EF50AD6EFF
:1005B000C32BF0D7ACA2FED7AB0EAD6E1200D9CFD5
:1005C000E6FFE1CFD9FFACA2FED7AA0EAD6EACA27A
:1005D000FED7800EAD6EACA2FED7FE0EDB50AD6E28
:1005E000ACA2FED7FE0EDB50800FAD6EACA2FED7E4
:1005F000AB0EAD6EE552E7CFD9FF1200D39EB882A5
:1006000050D881BAFED702D803001200B30E006E94
:10061000130E016E026A00C0E6FFE66E02C0E6FF3E
:10062000720EE66E010EE66EDFEC09F0036E050E4B
:10063000E15E0350720EE66E010EE66EF8EC09F014
:10064000E552E552F3CF71F10101F350712BEA6AE3
:10065000720FE96E010EEA220D0EEF6E7151712BD1
:10066000EA6A720FE96E010EEA220A0EEF6E0101CC
:10067000C36B010171510101C35D0DE2C351EA6A0F
:10068000720FE96E010EEA22EF50AD6EACA2FED7FA
:100690000101C32BEED70A0EE66ED5EC0AF0E55247
:1006A00012008B946B0EE66E53EC0AF0E5520A0EC4
:1006B000E66ED5EC0AF0E552400EE66E53EC0AF019
:1006C000E5528B840A0EE66ED5EC0AF0E552120074
:1006D0004F0EAB16AC9ACF0E9D164F0E7116729A36
:1006E000CF0EA316C69A6C9A1CEF0BF00001DE6BBE
:1006F000DF6B0E0EE66E100EE66EAB0EE66E5BEC7A
:1007000009F0E552E552E5520F0EC16E1FEC0BF0F9
:1007100017EC0BF00009FCE10EEC0BF0F3CFDEF070
:10072000F4CFDFF00001E06BF43413E2DE51840813
:10073000030EDF550EE20101C36B060EC35D5BE2E3
:100740008272640EE66EA7EC0AF0E5520101C32B3B
:10075000F4D7DF3527E2DE51BC08020EDF5522E276
:10076000DF3504E2DE518408030EDF551BE301018F
:10077000C36B040EC35D09E28272640EE66EA7ECE1
:100780000AF0E5520101C32BF4D7C36B020EC35D1F
:1007900032E28078640EE66EA7EC0AF0E5520101C1
:1007A000C32BF4D7DF352CE2DE51F408010EDF5500
:1007B00027E2DF3504E2DE51BC08020EDF5520E3FC
:1007C0000101C36B020EC35D09E28272640EE66E24
:1007D000A7EC0AF0E5520101C32BF4D7C36B040E5A
:1007E000C35D09E28078640EE66EA7EC0AF0E5527C
:1007F0000101C32BF4D782820001010EE06F11D0FA
:100800000101C36B060EC35D09E28078640EE66EDB
:10081000A7EC0AF0E5520101C32BF4D78088000150
:06082000E06B1CEF0BF081
:0A082600700ED36E0F01210E386F23
:10083000926E396BA50E936E618E618C3A6B900E41
:10084000946E8292829080980001E26B0101086BA5
:10085000000198819883989598979899989F988B7C
:100860000ED876EC03F028D83CD875D802DA640E9E
:10087000E66ED5EC0AF0E552FCD9F3EF06F09D8C5C
:10088000D08EF18CF288628AF28C9D8AA38A9F8A2C
:10089000F28E12000101A60E046F056905C102F176
:1008A000E8CF00F105C1D7FFD66E940EE66E71EC6D
:1008B0000AF0E552D59E12000101970E066FFE0E5A
:1008C000076FE8CF03F106C101F1CF6E06C1CEFF7D
:1008D000E66ABB0EE66E8BEC09F0E552E552CD9070
:1008E0001200FC0EE66E830EE66EEB0EE66E5BEC1F
:1008F00009F0E552E552E55212007F0EE66E800ED9
:10090000E66EEB0EE66E5BEC09F0E552E552E55261
:100910007F0EE66E0B0EE66E8BEC09F0E552E552AB
:10092000CD800F0148954897A60E556F548154838A
:10093000549554871200100E0001E36FE46BE66ECD
:10094000E4C0E6FF580EE66E22EC09F0E552E552EF
:10095000E552B8861200100E0001E36FE46B01014E
:10096000906BE66EE4C0E6FF3C0EE66E22EC09F00A
:10097000E552E552E552B886640EE66ED5EC0AF013
:10098000E552B00E006E130E016E026A00C0E6FF63
:10099000E66E02C0E6FF720EE66E010EE66EDFEC5A
:1009A00009F0036E050EE15E0350720EE66E010E55
:1009B000E66EF8EC09F0E552E552F3CF71F1010172
:1009C000F350712BEA6A720FE96E010EEA220D0EE6
:1009D000EF6E7151712BEA6A720FE96E010EEA2215
:1009E0000A0EEF6E0101C36B010171510101C35D7C
:1009F0000DE2C351EA6A720FE96E010EEA22EF506E
:100A0000AD6EACA2FED70101C32BEED7640EE66E2D
:100A1000D5EC0AF0E5529D0E006E130E016E026ACF
:100A200000C0E6FFE66E02C0E6FF720EE66E010E43
:100A3000E66EDFEC09F0036E050EE15E0350720E08
:100A4000E66E010EE66EF8EC09F0E552E552F3CFE2
:100A500071F10101F350712BEA6A720FE96E010E18
:100A6000EA220D0EEF6E7151712BEA6A720FE96E78
:100A7000010EEA220A0EEF6E0101C36B01017151F2
:100A80000101C35D0DE2C351EA6A720FE96E010E06
:100A9000EA22EF50AD6EACA2FED70101C32BEED718
:100AA000640EE66ED5EC0AF0E5528A0E006E130E67
:100AB000016E026A00C0E6FFE66E02C0E6FF720E3B
:100AC000E66E010EE66EDFEC09F0036E050EE15EE8
:100AD0000350720EE66E010EE66EF8EC09F0E55278
:100AE000E552F3CF71F10101F350712BEA6A720FF5
:100AF000E96E010EEA220D0EEF6E7151712BEA6A5A
:100B0000720FE96E010EEA220A0EEF6E0101C36B4D
:100B1000010171510101C35D0DE2C351EA6A720F17
:100B2000E96E010EEA22EF50AD6EACA2FED70101D4
:100B3000C32BEED7640EE66ED5EC0AF0E5526E0ECE
:100B4000006E130E016E026A00C0E6FFE66E02C080
:100B5000E6FF720EE66E010EE66EDFEC09F0036E44
:100B6000050EE15E0350720EE66E010EE66EF8ECC5
:100B700009F0E552E552F3CF71F10101F350712B09
:100B8000EA6A720FE96E010EEA220D0EEF6E7151E4
:100B9000712BEA6A720FE96E010EEA220A0EEF6EFD
:100BA0000101C36B010171510101C35D0DE2C3512C
:100BB000EA6A720FE96E010EEA22EF50AD6EACA246
:100BC000FED70101C32BEED7640EE66ED5EC0AF01A
:100BD000E5526A0E006E130E016E026A00C0E6FF57
:100BE000E66E02C0E6FF720EE66E010EE66EDFEC08
:100BF00009F0036E050EE15E0350720EE66E010E03
:100C0000E66EF8EC09F0E552E552F3CF71F101011F
:100C1000F350712BEA6A720FE96E010EEA220D0E93
:100C2000EF6E7151712BEA6A720FE96E010EEA22C2
:100C30000A0EEF6E0101C36B010171510101C35D29
:100C40000DE2C351EA6A720FE96E010EEA22EF501B
:100C5000AD6EACA2FED70101C32BEED7C80EE66E77
:100C6000D5EC0AF0E5524F0EAB16AC9ACF0E9D169E
:100C700012008B84E66AE66A010EE66E2DEC0AF03D
:100C8000E552E552E5520A0EE66ED5EC0AF0E55261
:100C90008B946A0EE66E53EC0AF0E5520A0EE66E8D
:100CA000D5EC0AF0E552100EE66E53EC0AF0E55270
:100CB0008B840A0EE66ED5EC0AF0E5528B946B0E2F
:100CC000E66E53EC0AF0E5520A0EE66ED5EC0AF039
:100CD000E552E66A53EC0AF0E5528B840A0EE66EA2
:100CE000D5EC0AF0E5528B94F50EE66E53EC0AF063
:100CF000E552C7A0FED7BEEC0AF00101C56F8B8498
:100D00000A0EE66ED5EC0AF0E5528B941B0EE66EE9
:100D100053EC0AF0E5520A0EE66ED5EC0AF0E55205
:100D20000101020EC66FE850080DF350E66E53EC59
:100D30000AF0E5528B840A0EE66ED5EC0AF0E55215
:100D40008B941C0EE66E53EC0AF0E5520A0EE66E2A
:100D5000D5EC0AF0E5520101020EC76FE850080D0C
:100D6000F350E66E53EC0AF0E5528B840A0EE66E01
:100D7000D5EC0AF0E5520101C66B0101C76B8B94FB
:100D80009B0EE66E53EC0AF0E552C7A0FED7BEEC10
:100D90000AF0180BE840E840E8401F0B0101C66F5D
:100DA0008B840A0EE66ED5EC0AF0E5528B949C0E0D
:100DB000E66E53EC0AF0E552C7A0FED7BEEC0AF08F
:100DC000180BE840E840E8401F0B0101C76F8B8417
:100DD000640EE66ED5EC0AF0E5520A0EE66ED5EC2E
:060DE0000AF0E5521200CA
:0A0DE6000001976B978FCF6B12008E
:100DF000D9CFE6FFE1CFD9FFE652FE0EDB50AB0ABA
:100E000019E0040A0CE0050A04E0000197AF64D081
:100E10001DD00001606B616B966B976B7FD00001FA
:100E20009751800B03E19751100B02E0978576D024
:100E3000978974D000019751800B08E16151006ED1
:100E4000016A010E005C000E015802E2978366D031
:100E500060C096F0DF6A6105DF5C2EE2DF50EA6A6F
:100E6000620FE96E000EEA22EF50AA0812E0DF508E
:100E7000EA6A620FE96E000EEA22EF50AB0809E061
:100E8000DF50EA6A620FE96E000EEA22EF50AF0807
:100E900009E1DF50EA6A620FE96E000EEA22EF50C4
:100EA0007F0B07D0DF50EA6A620FE96E000EEA227C
:100EB000EF509627DF2ACFD7000161076151EA6A18
:100EC000620FE96E000EEA22EF50965D02E097870E
:100ED00025D0978F978D22D09751006E016A0050D0
:100EE000011008E1978BFE0EDBCF60F097A916D0BA
:100EF000608F13D0612B6105EA6A620FE96E000E04
:100F0000EA22FE0EDBCFEFFF97A908D06105EA6A5F
:100F1000620FE96E000EEA22EF8E9799E552E552D4
:100F2000E7CFD9FF1200D9CFE6FFE1CFD9FFE652D4
:100F3000ACA2FED7AA0EAD6EACA2FED7C70EDB5098
:100F4000AD6EACA2FED7380EAD6EDF6AC80EDB50B8
:100F5000DF5C12E2ACA2FED7D950C90F006EFF0EC3
:100F6000DA20016EDF500024E96E000E0120EA6EE7
:100F7000EF50AD6EDF2AEAD7ACA2FED7AB0EAD6E56
:100F8000FE0EDB9CE552E552E7CFD9FF1200D9CF28
:100F9000E6FFE1CFD9FFE6520001AA0E9A6FFD0EDF
:100FA000DBCFE9FFFE0EDBCFEAFFEF50AA0801E13D
:100FB000F5D0FD0EDBCFE9FFFE0EDBCFEAFFEF50F1
:100FC000AB0801E1EBD0FD0EDBCFE9FFFE0EDBCF7E
:100FD000EAFFEF50AF0801E1E1D0FD0EDBCFE9FF02
:100FE000FE0EDBCFEAFFEFCF98F0FD0EDBCFE9FF7F
:100FF000FE0EDBCFEAFFEFCF9BF0020E996FFD0EE6
:10100000DBCFE9FFFE0EDBCFEAFFEFCFCEF0DF6AEA
:10101000FD0EDBCFE9FFFE0EDBCFEAFFEE52EF0461
:10102000DF5C01E38DD0FD0EDBCFE9FFFE0EDBCFF1
:10103000EAFF020EE926000EEA22DF500F01E92442
:10104000E96E000EEA20EA6EEF50AA0826E0FD0ED7
:10105000DBCFE9FFFE0EDBCFEAFF020EE926000E32
:10106000EA22DF50E924E96E000EEA20EA6EEF5032
:10107000AB0813E0FD0EDBCFE9FFFE0EDBCFEAFF8E
:10108000020EE926000EEA22DF50E924E96E000E86
:10109000EA20EA6EEF50AF081EE100019951992B4A
:1010A000EA6A9A0FE96E000EEA22AF0EEF6E9951CE
:1010B00075E0FD0EDBCFE9FFFE0EDBCFEAFF020E8F
:1010C000E926000EEA22DF500F01E924E96E000E46
:1010D000EA20EA6EEF9EFD0EDBCFE9FFFE0EDBCFCE
:1010E000EAFF020EE926000EEA22DF50E924E96E4B
:1010F000000EEA20EA6EEF50E66E00019951992B3E
:10110000EA6A9A0FE96E000EEA22E552E750EF6EA6
:10111000995144E0FD0EDBCFE9FFFE0EDBCFEAFF85
:10112000020EE926000EEA22DF500F01E924E96EE3
:10113000000EEA20EA6EEF500001CE27DF2A68D7C2
:10114000AA0ECE5D06E0AB0ECE5D03E0AF0ECE5D27
:101150000AE19951992BEA6A9A0FE96E000EEA2288
:10116000AF0EEF6ECE9F9951992BEA6A9A0FE96EF6
:10117000000EEA22CEC0EFFF9951992BEA6A9A0F2E
:10118000E96E000EEA22AB0EEF6E9951006E016A15
:10119000040E005C000E015801E3CF8DE552E552CC
:0611A000E7CFD9FF1200A9
:0A11A600940EF66E000EF76E000EB8
:1011B000F86E00010900F550D56F0900F550D66FA3
:1011C00003E1D56701D03DD00900F550D06F09008B
:1011D000F550D16F0900F550D26F09000900F550A4
:1011E000E96E0900F550EA6E090009000900F550A2
:1011F000D36F0900F550D46F09000900F6CFD7F07E
:10120000F7CFD8F0F8CFD9F0D0C0F6FFD1C0F7FFB4
:10121000D2C0F8FF0001D35302E1D45307E0090024
:10122000F550EE6ED307F8E2D407F9D7D7C0F6FF32
:10123000D8C0F7FFD9C0F8FF0001D507000ED65B74
:04124000BFD7120002
:0C124400D9CFE6FFDACFE6FFE1CFD9FFFB
:10125000E2CFDAFFAC6AAB6AFD0EDBB0AC88DBA292
:1012600002D0AC8CAB8CDBB4AC8EDBA602D0AB88EE
:1012700001D0AB8ADBB8AC84DBBAAB86DBAC02D086
:101280009D8A01D09D9ADBAE02D09D8801D09D98A9
:10129000FB0EDB50AF6EFC0EDBCF01F001C000F0A7
:1012A000016A0050B06EAC8AAB8EE552E5CFDAFF32
:0612B000E7CFD9FF120098
:0A12B600D9CFE6FFDACFE6FFE1CF63
:1012C000D9FFE2CFDAFFC26AC16AC06AFC0EDB5006
:1012D0007C0BC26EFB0EDB50C16EFD0EDB50040DAD
:1012E000F350380B016EFD0EDB380F0B070B006E51
:1012F000FD0EDB50800B00100110C06EFC0EDBAE4B
:1013000003D09E9C9D8CF28CC280E552E5CFDAFF23
:06131000E7CFD9FF120037
:0A131600D9CFE6FFDACFE6FFE1CF02
:10132000D9FFE2CFDAFFFC0EDB50F30BCC6EFD0EE3
:10133000DB507F0BE824CD6ECF6ACE6A9E90FD0E07
:10134000DBAE02D09D8001D09D90A490FC0EDBA46A
:1013500002D0A38001D0A390CCBECC86CD80E55234
:0A136000E5CFDAFFE7CFD9FF120056
:06136A00534554005345F9
:101370005420434F4E54524F4C204241554420324A
:1013800033303430302C384E310053455420434FE5
:101390004E54524F4C204344203420300053455487
:1013A0002042542041555448202A20313233340001
:0D13B00041540053455420534C4545500016
:0113BD00032C
:0213BE00FB0E24
:1013C000E3CFF6FFFC0EE3CFF7FFFD0EE3CFF8FF10
:1013D000FE0EE3CFE9FFFF0EE3CFEAFFE9CFF3FF15
:1013E000EACFF4FF0900F5CFEFFFEE66FBD712005E
:1013F000FE0EE3CFE9FFFF0EE3CFEAFFF36AF46AE4
:0C140000EE5203E0F34AF42AFBD712007E
:04140C00CD9000017E
:10141000E16B828281BA04D082A0FCD78290FAD795
:1014200082809BEC04F00001E16BE15103E181500B
:10143000200BFBE18292CD800001E105E7E18150C4
:10144000200BE4E0E2A903D0E29951EC00F00001A6
:0A145000E2A1F2D7A0EC02F0EFD702
:06145A00D9CFE6FFDACF56
:10146000E6FFE1CFD9FFE2CFDAFF3F0EC716C66A2B
:10147000FD0EDB50C612FB0EDB50C712FC0EDB501C
:10148000030A09E0010A04E0020A06E1C78C04D05D
:10149000C78CC68801D0C688C68AE552E5CFDAFF78
:0614A000E7CFD9FF1200A6
:0A14A600D9CFE6FFDACFE6FFE1CF71
:1014B000D9FFE2CFDAFFE652C950DF6E9E96C69E94
:1014C000FD0EDB50C96EC6AE02D0FF0E03D09EA645
:1014D000FED7000EE552E552E5CFDAFFE7CFD9FFA0
:0214E0001200F8
:0E14E200D9CFE6FFDACFE6FFE1CFD9FFE2CFA8
:1014F000DAFFFD0EDB507F0BD56ED76AD66AF29409
:10150000FD0EDBAE02D0F28A01D0F29AD58EE55202
:0A151000E5CFDAFFE7CFD9FF1200A4
:06151A00536F6D6E6F536C
:101520006F756E640056657273696F6E20302E3170
:101530000032362E2053657074656D6265722032FC
:0E1540003031340048532D554C4D00434B00C4
:02154E00FF0E8E
:10155000E350096EEF0E01D0F30EE76EE72EAEEF0B
:101560000AF00C0E086EE76AE72EB4EF0AF0082EB8
:0C157000B3EF0AF0092EACEF0AF01200F5
:04157C00D9CFE6FFDE
:10158000DACFE6FFE1CFD9FFE2CFDAFFE652C9506A
:10159000DF6E9E96C96A9EA6FED7C950E552E552F7
:0A15A000E5CFDAFFE7CFD9FF120014
:0615AA00FF0EE350096E84
:1015B000480E01D04C0EE76EE72EFED7E76AE72E05
:0A15C000FED7092EF7D70000120035
:0615CA00000EF36E00EEBE
:1015D00000F0030E01D81200EA6002D0EE6AFCD7D8
:0A15E000F350E9601200EE6AFCD738
:0615EA0012EE00F022EEFB
:1015F00000F0F86A079CD3EC08F013EC04F006EC5A
:061600000AF0FBD7120006
:0A160600FF0EE350E84E1200000052
:0C16100000D000D000D0E82EFAD7120065
:04161C00C450036E45
:0E162000026AC3500210F36E03C0F4FF120002
:02162E00C250A8
:08163000020B01E0010E1200A3
:06163800C2909D9C12000F
:02163E00C28266
:02164000120096
:020000040030CA
:0100010028D6
:0100020019E4
:010003003CC0
:01000500BD3D
:0100060001F8
:00000001FF
