:020000040000FA
:0600000043EF0BF01200BB
:0100060003F6
:080008009D50400B0CE09E50DE
:10001000400B09E00001E20505E18150200B02E000
:100020004AEC00F09E9C9E50200B2BE09D50200B34
:1000300028E09E9AAE50E66E41EC07F0E5520001D2
:1000400000019751800B1DE0000100016051800B01
:1000500018E0030E0001625D00E10001010EE26F95
:100060000001625100E1050EE66EE5EC02F0E5529A
:100070000F0E0001625D00E1B60EE66EE5EC02F0E7
:06008000E5521100120020
:0A008600010006000000E600000083
:04009000010000006B
:0C0094001FD8280E0101085D03E05C0E7F
:1000A000085D04E30C0E08270001E389340E01010A
:1000B000085D04E10001E3B1E383E381680E01011F
:1000C000085D07E30001E3B1E3830101086B000170
:1000D000E381120001010851082BEA6A090FE96E59
:1000E000010EEA22C4CFEFFF0851082BEA6A090F7C
:1000F000E96E010EEA22C3CFEFFF120001010851A1
:10010000082BEA6A090FE96E010EEA22E6C0EFFF4A
:100110000851082BEA6A090FE96E010EEA22E6C0CF
:10012000EFFF120001010851082BEA6A090FE96E7E
:10013000010EEA22E6C0EFFF0851082BEA6A090F18
:10014000E96E010EEA22E6C0EFFF0851082BEA6AC9
:10015000090FE96E010EEA22E6C0EFFF0851082BF5
:10016000EA6A090FE96E010EEA22E6C0EFFF0851C4
:10017000082BEA6A090FE96E010EEA22E6C0EFFFDA
:100180000851082BEA6A090FE96E010EEA22E6C05F
:10019000EFFF0851082BEA6A090FE96E010EEA2207
:1001A000E6C0EFFF0851082BEA6A090FE96E010E5D
:1001B000EA22E6C0EFFF0851082BEA6A090FE96E50
:1001C000010EEA22E6C0EFFF0851082BEA6A090F88
:1001D000E96E010EEA22E6C0EFFF0851082BEA6A39
:1001E000090FE96E010EEA22E6C0EFFF0851082B65
:1001F000EA6A090FE96E010EEA22E6C0EFFFE6C0E7
:1002000000F0016A00BE0168D890015004E6FF0EBC
:10021000005C000E015802E30001E66B1200340E90
:100220000101085D03E200015C0E02D00001280E0E
:10023000DE6F8B94010EE66E51EC0BF0E552BB0EB7
:10024000E66EA1EC0AF0E552C7A0FED70CEC0BF06D
:10025000E66E0001DE51DE2BEA6A090FE96E010E3F
:10026000EA22E552E750EF6E8B84010EE66E51EC08
:100270000BF0E5528B94010EE66E51EC0BF0E5525B
:10028000BC0EE66EA1EC0AF0E552C7A0FED70CEC5E
:100290000BF0E66E0001DE51DE2BEA6A090FE96E13
:1002A000010EEA22E552E750EF6E8B84010EE66EF6
:1002B00051EC0BF0E5528B94010EE66E51EC0BF015
:1002C000E552BD0EE66EA1EC0AF0E552C7A0FED7DE
:1002D0000CEC0BF0E66E0001DE51DE2BEA6A090F32
:1002E000E96E010EEA22E552E750EF6E8B84010EB3
:1002F000E66E51EC0BF0E5528B94010EE66E51EC7C
:100300000BF0E552BE0EE66EA1EC0AF0E552C7A076
:10031000FED70CEC0BF0E66E0001DE51DE2BEA6A34
:10032000090FE96E010EEA22E552E750EF6E8B8469
:10033000010EE66E51EC0BF0E5528B94010EE66E69
:1003400051EC0BF0E552BF0EE66EA1EC0AF0E5525F
:10035000C7A0FED70CEC0BF0E66E0001DE51DE2BE1
:10036000EA6A090FE96E010EEA22E552E750EF6EE4
:100370008B84010EE66E51EC0BF0E5528B94010E6E
:10038000E66E51EC0BF0E552C00EE66EA1EC0AF001
:10039000E552C7A0FED70CEC0BF0E66E0001DE5173
:1003A000DE2BEA6A090FE96E010EEA22E552E750F8
:1003B000EF6E8B84010EE66E51EC0BF0E5528B94E0
:1003C000010EE66E51EC0BF0E552C30EE66EA1ECA9
:1003D0000AF0E552C7A0FED70CEC0BF0E66E000168
:1003E000DE51DE2BEA6A090FE96E010EEA22E552C0
:1003F000E750EF6E8B84010EE66E51EC0BF0E55288
:100400008B94010EE66E51EC0BF0E552C40EE66ED5
:10041000A1EC0AF0E552C7A0FED70CEC0BF0E66E9B
:100420000001DE51DE2BEA6A090FE96E010EEA22B5
:10043000E552E750EF6E8B84010EE66E51EC0BF047
:10044000E5528B94010EE66E51EC0BF0E552C50EB1
:10045000E66EA1EC0AF0E552C7A0FED70CEC0BF05B
:10046000E66E0001DE51DE2BEA6A090FE96E010E2D
:10047000EA22E552E750EF6E8B84010EE66E51ECF6
:100480000BF0E5528B94010EE66E51EC0BF0E55249
:10049000C60EE66EA1EC0AF0E552C7A0FED70CEC42
:1004A0000BF0E66E0001DE51DE2BEA6A090FE96E01
:1004B000010EEA22E552E750EF6E8B84010EE66EE4
:1004C00051EC0BF0E5528B94010EE66E51EC0BF003
:1004D000E552C70EE66EA1EC0AF0E552C7A0FED7C2
:1004E0000CEC0BF0E66E0001DE51DE2BEA6A090F20
:1004F000E96E010EEA22E552E750EF6E8B84010EA1
:10050000E66E51EC0BF0E5528B94010EE66E51EC69
:100510000BF0E552C80EE66EA1EC0AF0E552C7A05A
:10052000FED70CEC0BF0E66E0001DE51DE2BEA6A22
:10053000090FE96E010EEA22E552E750EF6E8B8457
:10054000010EE66E51EC0BF0E55212000001E39152
:10055000ACA2FED7AA0EAD6EACA2FED798C0ADFF7E
:10056000ACA2FED7380EAD6E340E0101085D16E266
:100570000101C36B340EC35D0EE2ACA2FED7340E94
:100580000101C325EA6A090FE96E010EEA22EF5064
:10059000AD6EC32BEFD7ACA2FED714D00101C36B55
:1005A000340EC35D0DE2ACA2FED70101C351EA6A6D
:1005B000090FE96E010EEA22EF50AD6EC32BF0D7A2
:1005C000ACA2FED7AB0EAD6E1200D9CFE6FFE1CFE5
:1005D000D9FFACA2FED7AA0EAD6EACA2FED7800E9C
:1005E000AD6EACA2FED7FE0EDB50AD6EACA2FED758
:1005F000FE0EDB50800FAD6EACA2FED7AB0EAD6E23
:10060000E552E7CFD9FF1200D39EB88250D881BA05
:10061000FED702D803001200A40E006E130E016E66
:10062000026A00C0E6FFE66E02C0E6FF720EE66EEA
:10063000010EE66E31EC0AF0036E050EE15E03502A
:10064000720EE66E010EE66E4AEC0AF0E552E552D5
:10065000F3CF71F10101F350712BEA6A720FE96E69
:10066000010EEA220D0EEF6E7151712BEA6A720FC4
:10067000E96E010EEA220A0EEF6E0101C36B010161
:1006800071510101C35D0DE2C351EA6A720FE96E57
:10069000010EEA22EF50AD6EACA2FED70101C32BD2
:1006A000EED70A0EE66E23EC0BF0E55212008B94A7
:1006B0006B0EE66EA1EC0AF0E5520A0EE66E23EC34
:1006C0000BF0E552400EE66EA1EC0AF0E5528B8489
:1006D0000A0EE66E23EC0BF0E55212004F0EAB163D
:1006E000AC9ACF0E9D164F0E7116729ACF0EA316AE
:1006F000C69A6C9A6AEF0BF00001DF6BE06B0E0E8E
:10070000E66E100EE66EAB0EE66ED7EC09F0E55223
:10071000E552E5520F0EC16E6DEC0BF065EC0BF07F
:100720000009FCE15CEC0BF0F3CFDFF0F4CFE0F07C
:100730000001E16BF43413E2DF518408030EE0554D
:100740000EE20101C36B060EC35D5BE28272640EB2
:10075000E66EF5EC0AF0E5520101C32BF4D7E03563
:1007600027E2DF51BC08020EE05522E2E03504E248
:10077000DF518408030EE0551BE30101C36B040E37
:10078000C35D09E28272640EE66EF5EC0AF0E55292
:100790000101C32BF4D7C36B020EC35D32E2807834
:1007A000640EE66EF5EC0AF0E5520101C32BF4D7B6
:1007B000E0352CE2DF51F408010EE05527E2E03588
:1007C00004E2DF51BC08020EE05520E30101C36BD7
:1007D000020EC35D09E28272640EE66EF5EC0AF069
:1007E000E5520101C32BF4D7C36B040EC35D09E2CC
:1007F0008078640EE66EF5EC0AF0E5520101C32B39
:10080000F4D782820001010EE16F11D00101C36BA8
:10081000060EC35D09E28078640EE66EF5EC0AF020
:10082000E5520101C32BF4D780880001E16B6AEF28
:020830000BF0CB
:0E083200700ED36E0F01210E386F926E396B6F
:10084000A50E936E618E618C3A6B900E946E8292BF
:10085000829080980001E36B0101086B0001988190
:100860009883989598979899989F988B0DD87CEC39
:1008700003F047D874D846DA640EE66E23EC0BF02A
:10088000E55240DA3CEF07F09D8CD08EF18CF28877
:10089000628AF28C9D8AA38A9F8AF28E12000101DD
:1008A000E70E046F056905C102F1E8CF00F105C14B
:1008B000D7FFD66E940EE66EBFEC0AF0E552D59ED9
:1008C000120001019C0E066F076907C103F1E8CF12
:1008D00001F107C1CFFFCE6EE66ABB0EE66E07ECF4
:1008E0000AF0E552E552CD901200FC0EE66E830E42
:1008F000E66EEB0EE66ED7EC09F0E552E552E552F6
:1009000012007F0EE66E800EE66EEB0EE66ED7EC02
:1009100009F0E552E552E5527F0EE66E1B0EE66EDB
:1009200007EC0AF0E552E5520F0148954897640E2E
:10093000556F566B54815483549554871200100E92
:100940000001E46FE56BE66EE5C0E6FF580EE66E6B
:100950006BEC09F0E552E552E552B8861200220E22
:100960000001E46FE56B0101906BE66EE5C0E6FF08
:100970003C0EE66E6BEC09F0E552E552E552B886A6
:10098000640EE66E23EC0BF0E552A10E006E130E22
:10099000016E026A00C0E6FFE66E02C0E6FF720E5C
:1009A000E66E010EE66E31EC0AF0036E050EE15EB6
:1009B0000350720EE66E010EE66E4AEC0AF0E55246
:1009C000E552F3CF71F10101F350712BEA6A720F16
:1009D000E96E010EEA220D0EEF6E7151712BEA6A7B
:1009E000720FE96E010EEA220A0EEF6E0101C36B6F
:1009F000010171510101C35D0DE2C351EA6A720F39
:100A0000E96E010EEA22EF50AD6EACA2FED70101F5
:100A1000C32BEED7640EE66E23EC0BF0E5528E0E80
:100A2000006E130E016E026A00C0E6FFE66E02C0A1
:100A3000E6FF720EE66E010EE66E31EC0AF0036E12
:100A4000050EE15E0350720EE66E010EE66E4AEC94
:100A50000AF0E552E552F3CF71F10101F350712B29
:100A6000EA6A720FE96E010EEA220D0EEF6E715105
:100A7000712BEA6A720FE96E010EEA220A0EEF6E1E
:100A80000101C36B010171510101C35D0DE2C3514D
:100A9000EA6A720FE96E010EEA22EF50AD6EACA267
:100AA000FED70101C32BEED77B0E006E130E016E35
:100AB000026A00C0E6FFE66E02C0E6FF720EE66E56
:100AC000010EE66E31EC0AF0036E050EE15E035096
:100AD000720EE66E010EE66E4AEC0AF0E552E55241
:100AE000F3CF71F10101F350712BEA6A720FE96ED5
:100AF000010EEA220D0EEF6E7151712BEA6A720F30
:100B0000E96E010EEA220A0EEF6E0101C36B0101CC
:100B100071510101C35D0DE2C351EA6A720FE96EC2
:100B2000010EEA22EF50AD6EACA2FED70101C32B3D
:100B3000EED7640EE66E23EC0BF0E552680E006E05
:100B4000130E016E026A00C0E6FFE66E02C0E6FF09
:100B5000720EE66E010EE66E31EC0AF0036E050EC3
:100B6000E15E0350720EE66E010EE66E4AEC0AF08C
:100B7000E552E552F3CF71F10101F350712BEA6AAE
:100B8000720FE96E010EEA220D0EEF6E7151712B9C
:100B9000EA6A720FE96E010EEA220A0EEF6E010197
:100BA000C36B010171510101C35D0DE2C351EA6ADA
:100BB000720FE96E010EEA22EF50AD6EACA2FED7C5
:100BC0000101C32BEED7640EE66E23EC0BF0E55269
:100BD0004C0E006E130E016E026A00C0E6FFE66E58
:100BE00002C0E6FF720EE66E010EE66E31EC0AF010
:100BF000036E050EE15E0350720EE66E010EE66EA8
:100C00004AEC0AF0E552E552F3CF71F10101F350DD
:100C1000712BEA6A720FE96E010EEA220D0EEF6E79
:100C20007151712BEA6A720FE96E010EEA220A0E07
:100C3000EF6E0101C36B010171510101C35D0DE252
:100C4000C351EA6A720FE96E010EEA22EF50AD6EEF
:100C5000ACA2FED70101C32BEED7640EE66E23ECE7
:100C60000BF0E552480E006E130E016E026A00C0D2
:100C7000E6FFE66E02C0E6FF720EE66E010EE66E5D
:100C800031EC0AF0036E050EE15E0350720EE66E63
:100C9000010EE66E4AEC0AF0E552E552F3CF71F12F
:100CA0000101F350712BEA6A720FE96E010EEA221C
:100CB0000D0EEF6E7151712BEA6A720FE96E010E23
:100CC000EA220A0EEF6E0101C36B010171510101AD
:100CD000C35D0DE2C351EA6A720FE96E010EEA22AA
:100CE000EF50AD6EACA2FED70101C32BEED7C80EFC
:100CF000E66E23EC0BF0E5524F0EAB16AC9ACF0E1E
:100D00009D1612008B84E66AE66A010EE66E58ECC8
:100D10000AF0E552E552E5520A0EE66E23EC0BF0BE
:100D2000E5528B946A0EE66EA1EC0AF0E5520A0ECB
:100D3000E66E23EC0BF0E552100EE66EA1EC0AF025
:100D4000E5528B840A0EE66E23EC0BF0E5528B9491
:100D50006B0EE66EA1EC0AF0E5520A0EE66E23EC8D
:100D60000BF0E552E66AA1EC0AF0E5528B840A0E1C
:100D7000E66E23EC0BF0E5528B94F50EE66EA1ECDB
:100D80000AF0E552C7A0FED70CEC0BF00101C56FCD
:100D90008B840A0EE66E23EC0BF0E5528B941B0E4F
:100DA000E66EA1EC0AF0E5520A0EE66E23EC0BF0BB
:100DB000E5520101020EC66FE850080DF350E66ED1
:100DC000A1EC0AF0E5528B840A0EE66E23EC0BF0E0
:100DD000E5528B941C0EE66EA1EC0AF0E5520A0E69
:100DE000E66E23EC0BF0E5520101020EC76FE850EE
:100DF000080DF350E66EA1EC0AF0E5528B840A0E62
:100E0000E66E23EC0BF0E5520101C66B0101C76BE6
:100E10008B949B0EE66EA1EC0AF0E552C7A0FED7BC
:100E20000CEC0BF0180BE840E840E8401F0B010108
:100E3000C66F8B840A0EE66E23EC0BF0E5528B94A2
:100E40009C0EE66EA1EC0AF0E552C7A0FED70CECB2
:100E50000BF0180BE840E840E8401F0B0101C76F9A
:100E60008B84640EE66E23EC0BF0E5520A0EE66E00
:080E700023EC0BF0E552120027
:080E78000001976B978FCF6B0F
:100E80001200D9CFE6FFE1CFD9FFE652FE0EDB50CC
:100E9000AB0A19E0040A0CE0050A04E0000197AF70
:100EA00064D01DD00001606B616B966B976B7FD037
:100EB00000019751800B03E19751100B02E09785D9
:100EC00076D0978974D000019751800B08E1615169
:100ED000006E016A010E005C000E015802E2978369
:100EE00066D060C096F0DF6A6105DF5C2EE2DF50FD
:100EF000EA6A620FE96E000EEA22EF50AA0812E0D9
:100F0000DF50EA6A620FE96E000EEA22EF50AB088A
:100F100009E0DF50EA6A620FE96E000EEA22EF5044
:100F2000AF0809E1DF50EA6A620FE96E000EEA22BB
:100F3000EF507F0B07D0DF50EA6A620FE96E000EB8
:100F4000EA22EF509627DF2ACFD7000161076151CF
:100F5000EA6A620FE96E000EEA22EF50965D02E047
:100F6000978725D0978F978D22D09751006E016A71
:100F70000050011008E1978BFE0EDBCF60F097A9BF
:100F800016D0608F13D0612B6105EA6A620FE96E9B
:100F9000000EEA22FE0EDBCFEFFF97A908D0610515
:100FA000EA6A620FE96E000EEA22EF8E9799E55227
:100FB000E552E7CFD9FF1200D9CFE6FFE1CFD9FF45
:100FC000E652ACA2FED7AA0EAD6EACA2FED7C70EFB
:100FD000DB50AD6EACA2FED7380EAD6EDF6AC80E28
:100FE000DB50DF5C12E2ACA2FED7D950C90F006E15
:100FF000FF0EDA20016EDF500024E96E000E0120A2
:10100000EA6EEF50AD6EDF2AEAD7ACA2FED7AB0E88
:10101000AD6EFE0EDB9CE552E552E7CFD9FF120024
:10102000D9CFE6FFE1CFD9FFE6520001AA0E9A6FB1
:10103000FD0EDBCFE9FFFE0EDBCFEAFFEF50AA0883
:1010400001E1F5D0FD0EDBCFE9FFFE0EDBCFEAFFBD
:10105000EF50AB0801E1EBD0FD0EDBCFE9FFFE0E58
:10106000DBCFEAFFEF50AF0801E1E1D0FD0EDBCFAF
:10107000E9FFFE0EDBCFEAFFEFCF98F0FD0EDBCFEE
:10108000E9FFFE0EDBCFEAFFEFCF9BF0020E996F78
:10109000FD0EDBCFE9FFFE0EDBCFEAFFEFCFCEF098
:1010A000DF6AFD0EDBCFE9FFFE0EDBCFEAFFEE527B
:1010B000EF04DF5C01E38DD0FD0EDBCFE9FFFE0E18
:1010C000DBCFEAFF020EE926000EEA22DF500F0115
:1010D000E924E96E000EEA20EA6EEF50AA0826E045
:1010E000FD0EDBCFE9FFFE0EDBCFEAFF020EE926A5
:1010F000000EEA22DF50E924E96E000EEA20EA6ED3
:10110000EF50AB0813E0FD0EDBCFE9FFFE0EDBCFA7
:10111000EAFF020EE926000EEA22DF50E924E96E1A
:10112000000EEA20EA6EEF50AF081EE1000199516F
:10113000992BEA6A9A0FE96E000EEA22AF0EEF6E63
:10114000995175E0FD0EDBCFE9FFFE0EDBCFEAFF24
:10115000020EE926000EEA22DF500F01E924E96EB3
:10116000000EEA20EA6EEF9EFD0EDBCFE9FFFE0ED9
:10117000DBCFEAFF020EE926000EEA22DF50E92467
:10118000E96E000EEA20EA6EEF50E66E000199511A
:10119000992BEA6A9A0FE96E000EEA22E552E750AF
:1011A000EF6E995144E0FD0EDBCFE9FFFE0EDBCF81
:1011B000EAFF020EE926000EEA22DF500F01E924C1
:1011C000E96E000EEA20EA6EEF500001CE27DF2A1A
:1011D00068D7AA0ECE5D06E0AB0ECE5D03E0AF0E83
:1011E000CE5D0AE19951992BEA6A9A0FE96E000ED9
:1011F000EA22AF0EEF6ECE9F9951992BEA6A9A0FB1
:10120000E96E000EEA22CEC0EFFF9951992BEA6AEF
:101210009A0FE96E000EEA22AB0EEF6E9951006E46
:10122000016A040E005C000E015801E3CF8DE55207
:08123000E552E7CFD9FF1200DF
:08123800860EF66E000EF76E43
:10124000000EF86E00010900F550D56F0900F55049
:10125000D66F03E1D56701D03DD00900F550D06FBE
:101260000900F550D16F0900F550D26F090009004F
:10127000F550E96E0900F550EA6E09000900090011
:10128000F550D36F0900F550D46F09000900F6CF6F
:10129000D7F0F7CFD8F0F8CFD9F0D0C0F6FFD1C053
:1012A000F7FFD2C0F8FF0001D35302E1D45307E0A7
:1012B0000900F550EE6ED307F8E2D407F9D7D7C08E
:1012C000F6FFD8C0F7FFD9C0F8FF0001D507000E20
:0612D000D65BBFD712003F
:0A12D600D9CFE6FFDACFE6FFE1CF43
:1012E000D9FFE2CFDAFFAC6AAB6AFD0EDBB0AC88A7
:1012F000DBA202D0AC8CAB8CDBB4AC8EDBA602D014
:10130000AB8801D0AB8ADBB8AC84DBBAAB86DBAC94
:1013100002D09D8A01D09D9ADBAE02D09D8801D07B
:101320009D98FB0EDB50AF6EFC0EDBCF01F001C0D1
:1013300000F0016A0050B06EAC8AAB8EE552E5CF8A
:08134000DAFFE7CFD9FF12002C
:081348005345540053455420A5
:10135000434F4E54524F4C2042415544203233307B
:101360003430302C384E310053455420434F4E54C6
:10137000524F4C20434420342030005345542042E7
:10138000542041555448202A2031323334005345EB
:1013900054204254204E414D4520536F6D6E6F33A3
:0E13A0000041540053455420534C4545500025
:0213AE00D9CF95
:1013B000E6FFDACFE6FFE1CFD9FFE2CFDAFFC26A7C
:1013C000C16AC06AFC0EDB507C0BC26EFB0EDB50A8
:1013D000C16EFD0EDB50040DF350380B016EFD0E97
:1013E000DB380F0B070B006EFD0EDB50800B00107F
:1013F0000110C06EFC0EDBAE03D09E9C9D8CF28C67
:0E140000C280E552E5CFDAFFE7CFD9FF120038
:02140E00D9CF34
:10141000E6FFDACFE6FFE1CFD9FFE2CFDAFFFC0E3D
:10142000DB50F30BCC6EFD0EDB507F0BE824CD6E52
:10143000CF6ACE6A9E90FD0EDBAE02D09D8001D0B9
:101440009D90A490FC0EDBA402D0A38001D0A390B9
:10145000CCBECC86CD80E552E5CFDAFFE7CFD9FF11
:02146000120078
:0E146200FB0EE3CFF6FFFC0EE3CFF7FFFD0E0F
:10147000E3CFF8FFFE0EE3CFE9FFFF0EE3CFEAFF75
:10148000E9CFF3FFEACFF4FF0900F5CFEFFFEE66F7
:10149000FBD71200FE0EE3CFE9FFFF0EE3CFEAFF1A
:1014A000F36AF46AEE5203E0F34AF42AFBD712001F
:1014B000D9CFE6FFDACFE6FFE1CFD9FFE2CFDAFFFF
:1014C0003F0EC716C66AFD0EDB50C612FB0EDB5080
:1014D000C712FC0EDB50030A09E0010A04E0020A0D
:1014E00006E1C78C04D0C78CC68801D0C688C68ADE
:0C14F000E552E5CFDAFFE7CFD9FF12008C
:0414FC00C290000199
:10150000E26B828281BA04D082A0FCD78290FAD7A3
:1015100082809FEC04F00001E26BE25103E1815014
:10152000200BFBE18292C2800001E205E7E18150DD
:10153000200BE4E0E3A1F8D70FEC01F0A6EC02F0F9
:02154000F3D7DF
:0E154200D9CFE6FFDACFE6FFE1CFD9FFE2CF47
:10155000DAFFE652C950DF6E9E96C69EFD0EDB5046
:10156000C96EC6AE02D0FF0E03D09EA6FED7000EF7
:0E157000E552E552E5CFDAFFE7CFD9FF1200D2
:02157E00D9CFC3
:10158000E6FFDACFE6FFE1CFD9FFE2CFDAFFFD0ECB
:10159000DB507F0BD56ED76AD66AF294FD0EDBAEB8
:1015A00002D0F28A01D0F29AD58EE552E5CFDAFF69
:0615B000E7CFD9FF120095
:0A15B600536F6D6E6F536F756E6416
:1015C0000056657273696F6E20302E310032362EF0
:1015D0002053657074656D6265722032303134005D
:0A15E00048532D554C4D00434B00BD
:0615EA00FF0EE350096E44
:1015F000EF0E01D0F30EE76EE72EFCEF0AF00C0EB3
:10160000086EE76AE72E02EF0BF0082E01EF0BF0F1
:08161000092EFAEF0AF01200A6
:08161800D9CFE6FFDACFE6FFAF
:10162000E1CFD9FFE2CFDAFFE652C950DF6E9E96D6
:10163000C96A9EA6FED7C950E552E552E5CFDAFF4A
:06164000E7CFD9FF120004
:0A164600FF0EE350096E480E01D0BC
:101650004C0EE76EE72EFED7E76AE72EFED7092E7F
:06166000F7D700001200A4
:0A166600000EF36E00EE00F0030E1C
:1016700001D81200EA6002D0EE6AFCD7F350E960AC
:061680001200EE6AFCD727
:0A16860012EE00F022EE00F0F86A08
:10169000079C1CEC09F019EC04F07EEC0AF0FBD777
:0216A000120036
:0E16A200FF0EE350E84E1200000000D000D012
:0816B00000D0E82EFAD7120069
:0816B800C450036E026AC35026
:0A16C0000210F36E03C0F4FF1200E5
:0616CA00C250020B01E01A
:0416D000010E1200F5
:0616D400C2909D9C120073
:0416DA00C2821200B6
:020000040030CA
:0100010028D6
:0100020019E4
:010003003CC0
:01000500BD3D
:0100060001F8
:00000001FF
