:020000040000FA
:060000004FEF0EF01200AC
:080008009E50010B09E09D5020
:10001000010B06E0C28207C1CFFF05C1CEFF9E9053
:100020009D50400B2AE09E50400B27E0808238EC28
:1000300005F0280E01018A5D04E05C0E01018A5D75
:1000400002E3DDEC05F0340E01018A5D07E10101F8
:1000500089A102D00101898301018981680E010112
:100060008A5D09E3010189A102D0010189830101AF
:100070008A6B0101898180929E9CF250020B05E0FF
:10008000F250100B02E0F2928280F250010B1EE05F
:100090006250200B1BE0F2908150200B01E0010E1A
:1000A00001015F6F01015F51E8B08280E8A082909A
:1000B00001015F5102E0000E01D0010EE8B0828222
:1000C000E8A0829201015F5101E1FF009E50200BE8
:1000D0002BE09D50200B28E09E9AAE50E66E51EC2E
:1000E00009F0E552000100019751800B1DE000016D
:1000F00000016051800B18E0030E0001625D00E119
:100100000101030E606F0001625100E1050EE66E11
:10011000A7EC07F0E5520F0E0001625D00E1A00EB2
:10012000E66EA7EC07F0E552A450200B04E0A350C4
:10013000200B01E0A49A11001200700ED36E0F0183
:10014000210E386F926E396BA50E936E618E618CA5
:100150003A6B900E946E8292829080980101896B26
:100160008A6B000198819883989598979899989FA1
:10017000988B0FD8AEEC08F028D83BD863D89ADA21
:10018000E0D9640EE66E2FEC0EF0E552DAD94CEFB2
:1001900009F09D8CD08EF18CF288628AF28C9D8A57
:1001A000A38A9F8AF28E12000101A60E006F0169D8
:1001B00001C106F1046F01C1D7FFD66E940EE66E41
:1001C000B4EC0DF0E552D59E12000101970E026FBE
:1001D000FE0E036F076F02C105F1CF6E02C1CEFFA5
:1001E000E66ABB0EE66EB1EC0CF0E552E552CD903E
:1001F0001200FC0EE66E830EE66EEB0EE66E81ECF0
:100200000CF0E552E552E55212007F0EE66E0B0E41
:10021000E66EB1EC0CF0E552E5527F0EE66E800E14
:10022000E66EEB0EE66E81EC0CF0E552E552E5521F
:10023000CD800F014895A60E556F54815483549577
:1002400054871200100E0101086F096B2C6B5F6B55
:10025000E66E09C1E6FF3C0EE66E10EC0CF0E552CE
:10026000E552E552B886640EE66E2FEC0EF0E552CC
:10027000060E106E1A0E116E126A10C0E6FFE66EC0
:1002800012C0E6FF0E0EE66E010EE66E05EC0DF0F6
:10029000136E050EE15E13500E0EE66E010EE66E55
:1002A0001EEC0DF0E552E552F3CF0DF10101F350D4
:1002B0000D2BEA6A0E0FE96E010EEA220D0EEF6EAB
:1002C0000D510D2BEA6A0E0FE96E010EEA220A0E9D
:1002D000EF6E0B6B0D510B5D0DE20B51EA6A0E0FC9
:1002E000E96E010EEA22EF50AD6EACA2FED701011D
:1002F0000B2BF0D7640EE66E2FEC0EF0E552F30EEA
:10030000106E190E116E126A10C0E6FFE66E12C072
:10031000E6FF0E0EE66E010EE66E05EC0DF0136EB6
:10032000050EE15E13500E0EE66E010EE66E1EEC3B
:100330000DF0E552E552F3CF0DF10101F3500D2B15
:10034000EA6A0E0FE96E010EEA220D0EEF6E0D51F4
:100350000D2BEA6A0E0FE96E010EEA220A0EEF6E0D
:100360000B6B0D510B5D0DE20B51EA6A0E0FE96E3E
:10037000010EEA22EF50AD6EACA2FED701010B2BAD
:10038000F0D7640EE66E2FEC0EF0E552E00E106E24
:10039000190E116E126A10C0E6FFE66E12C0E6FF7B
:1003A0000E0EE66E010EE66E05EC0DF0136E050EF8
:1003B000E15E13500E0EE66E010EE66E1EEC0DF0C1
:1003C000E552E552F3CF0DF10101F3500D2BEA6A2E
:1003D0000E0FE96E010EEA220D0EEF6E0D510D2B80
:1003E000EA6A0E0FE96E010EEA220A0EEF6E0B6B3F
:1003F0000D510B5D0DE20B51EA6A0E0FE96E010E15
:10040000EA22EF50AD6EACA2FED701010B2BF0D764
:10041000640EE66E2FEC0EF0E552C40E106E190E4F
:10042000116E126A10C0E6FFE66E12C0E6FF0E0EF5
:10043000E66E010EE66E05EC0DF0136E050EE15E44
:1004400013500E0EE66E010EE66E1EEC0DF0E55238
:10045000E552F3CF0DF10101F3500D2BEA6A0E0FB7
:10046000E96E010EEA220D0EEF6E0D510D2BEA6AB8
:100470000E0FE96E010EEA220A0EEF6E0B6B0D51A4
:100480000B5D0DE20B51EA6A0E0FE96E010EEA22D6
:10049000EF50AD6EACA2FED701010B2BF0D7640E6E
:1004A000E66E2FEC0EF0E552C00E106E190E116EB6
:1004B000126A10C0E6FFE66E12C0E6FF0E0EE66E90
:1004C000010EE66E05EC0DF0136E050EE15E1350A5
:1004D0000E0EE66E010EE66E1EEC0DF0E552E552D4
:1004E000F3CF0DF10101F3500D2BEA6A0E0FE96E07
:1004F000010EEA220D0EEF6E0D510D2BEA6A0E0F62
:10050000E96E010EEA220A0EEF6E0B6B0D510B5DC8
:100510000DE20B51EA6A0E0FE96E010EEA22EF506E
:10052000AD6EACA2FED701010B2BF0D7C80EE66E64
:100530002FEC0EF0E5524F0EAB16AC9ACF0E9D1677
:1005400012008B84E66AE66A010EE66E52EC0DF04C
:10055000E552E552E5520A0EE66E2FEC0EF0E5523A
:100560008B946A0EE66E96EC0DF0E5520A0EE66E7E
:100570002FEC0EF0E552100EE66E96EC0DF0E55203
:100580008B840A0EE66E2FEC0EF0E5528B946B0E08
:10059000E66E96EC0DF0E5520A0EE66E2FEC0EF0CC
:1005A000E552E66A96EC0DF0E5528B840A0EE66E93
:1005B0002FEC0EF0E5528B94F50EE66E96EC0DF0F6
:1005C000E552C7A0FED718EC0EF00101616F8B84D5
:1005D0000A0EE66E2FEC0EF0E5528B941B0EE66EC3
:1005E00096EC0DF0E5520A0EE66E2FEC0EF0E55299
:1005F0000101020E706FE850080DF350E66E96ECA4
:100600000DF0E5528B840A0EE66E2FEC0EF0E552EB
:100610008B941C0EE66E96EC0DF0E5520A0EE66E1B
:100620002FEC0EF0E5520101020E716FE850080D3B
:10063000F350E66E96EC0DF0E5528B840A0EE66EF2
:100640002FEC0EF0E5520101706B716B8B949B0ED9
:10065000E66E96EC0DF0E552C7A0FED718EC0EF052
:10066000180BE840E840E8401F0B0101706F8B84D5
:100670000A0EE66E2FEC0EF0E5528B949C0EE66EA1
:1006800096EC0DF0E552C7A0FED718EC0EF0180B53
:10069000E840E840E8401F0B0101716F8B84640E55
:1006A000E66E2FEC0EF0E5520A0EE66E2FEC0EF021
:1006B000E55212008A88E66AE66A010EE66E2CECC4
:1006C0000DF0E552E552E5520A0EE66E2FEC0EF003
:1006D000E5520101766B776B786B8A989F0EE66E18
:1006E00078EC0DF0E5526DA0FED701EC0EF00101A3
:1006F000766F01EC0EF00101776F01EC0EF0010155
:10070000786F8A880A0EE66E2FEC0EF0E5528A9812
:10071000050EE66E78EC0DF0E5526DA0FED701EC0B
:100720000EF00101796F8A880A0EE66E2FEC0EF04A
:10073000E5521200D9CFE6FFE1CFD9FFE65285D9C5
:100740000108FDE08A98060EE66E78EC0DF0E552A1
:100750008A88010EE66E2FEC0EF0E5528A98AD0EF7
:10076000E66E78EC0DF0E552FB0EDBCF10F0FC0EE0
:10077000DBCF11F0FD0EDBCF12F0FE0EDBCF13F05E
:10078000100ED8901332123211321032E806F9E10D
:100790001050DF6EDFCFE6FF78EC0DF0E552FB0E78
:1007A000DBCF10F0FC0EDBCF11F0FD0EDBCF12F033
:1007B000FE0EDBCF13F0080ED89013321232113236
:1007C0001032E806F9E11050DF6EDFCFE6FF78EC7B
:1007D0000DF0E552FB0EDB50DF6EDFCFE6FF78EC6D
:1007E0000DF0E552F90EDBCFE9FFDB2AFA0EDBCF85
:1007F000EAFF01E3DB2AEF50E66E78EC0DF0E552FC
:10080000F90EDBCFE9FFDB2AFA0EDBCFEAFF01E3CB
:10081000DB2AEF50E66E78EC0DF0E5520101020E96
:100820000B6FF80EDB500B5D2CE28A88010EE66E32
:100830002FEC0EF0E5528A98AD0EE66E78EC0DF0D6
:10084000E552F90EDBCFE9FFDB2AFA0EDBCFEAFF38
:1008500001E3DB2AEF50E66E78EC0DF0E552F90E7D
:10086000DBCFE9FFDB2AFA0EDBCFEAFF01E3DB2A6D
:10087000EF50E66E78EC0DF0E552020E01010B2709
:10088000D0D78A88010EE66E2FEC0EF0E5528A98DA
:10089000040EE66E78EC0DF0E5528A88D6D8010891
:1008A000FDE08A88D2D80108FDE0E552E552E7CFA5
:1008B000D9FF1200D9CFE6FFE1CFD9FFE6528A98DF
:1008C000030EE66E78EC0DF0E552FB0EDBCF10F078
:1008D000FC0EDBCF11F0FD0EDBCF12F0FE0EDBCFF6
:1008E00013F0100ED8901332123211321032E80683
:1008F000F9E11050DF6EDFCFE6FF78EC0DF0E55246
:10090000FB0EDBCF10F0FC0EDBCF11F0FD0EDBCFCA
:1009100012F0FE0EDBCF13F0080ED8901332123215
:1009200011321032E806F9E11050DF6EDFCFE6FF3A
:1009300078EC0DF0E552FB0EDB50DF6EDFCFE6FF0B
:1009400078EC0DF0E55201010B6BF80EDB500B5DFE
:1009500015E201EC0EF0E66E01010B51E76EF90EA7
:10096000DBCFE9FFFA0EDBCFEAFFE750E926000E06
:10097000EA22E552E750EF6E0B2BE7D78A88E55263
:10098000E552E7CFD9FF1200D9CFE6FFE1CFD9FF7B
:10099000E6525BD80108FDE08A98060EE66E78EC18
:1009A0000DF0E5528A880A0EE66E2FEC0EF0E55245
:1009B0008A98200EE66E78EC0DF0E552FB0EDBCF48
:1009C00010F0FC0EDBCF11F0FD0EDBCF12F0FE0EAF
:1009D000DBCF13F0100ED8901332123211321032D6
:1009E000E806F9E11050DF6EDFCFE6FF78EC0DF09E
:1009F000E552FB0EDBCF10F0FC0EDBCF11F0FD0E4D
:100A0000DBCF12F0FE0EDBCF13F0080ED8901332BE
:100A1000123211321032E806F9E11050DF6EDFCFEA
:100A2000E6FF78EC0DF0E552FB0EDB50DF6EDFCF1A
:100A3000E6FF78EC0DF0E5528A8807D80108FDE062
:100A4000E552E552E7CFD9FF12008A98050EE66E0F
:100A500078EC0DF0E5526DA0FED701EC0EF001012F
:100A6000796F8A88010E7915010801E1010C000CEB
:100A700001018A518A2BEA6A8B0FE96E010EEA2284
:100A8000C4CFEFFF8A518A2BEA6A8B0FE96E010E01
:100A9000EA22C3CFEFFF120001018A518A2BEA6AD2
:100AA0008B0FE96E010EEA22FDC1EFFF8A518A2BFE
:100AB000EA6A8B0FE96E010EEA22FDC1EFFF120018
:100AC00001018A518A2BEA6A8B0FE96E010EEA2234
:100AD000FDC1EFFF8A518A2BEA6A8B0FE96E010E86
:100AE000EA22FDC1EFFF8A518A2BEA6A8B0FE96E79
:100AF000010EEA22FDC1EFFF8A518A2BEA6A8B0FB1
:100B0000E96E010EEA22FDC1EFFF8A518A2BEA6AE3
:100B10008B0FE96E010EEA22FDC1EFFF8A518A2B8D
:100B2000EA6A8B0FE96E010EEA22FDC1EFFF8A51DE
:100B30008A2BEA6A8B0FE96E010EEA22FDC1EFFFF4
:100B40008A518A2BEA6A8B0FE96E010EEA22FDC1F7
:100B5000EFFF8A518A2BEA6A8B0FE96E010EEA22B7
:100B6000FDC1EFFF8A518A2BEA6A8B0FE96E010EF5
:100B7000EA22FDC1EFFF8A518A2BEA6A8B0FE96EE8
:100B8000010EEA22FDC1EFFF8A518A2BEA6A8B0F20
:100B9000E96E010EEA22FDC1EFFFFDC110F0116AFE
:100BA00010BE1168D890115004E6FF0E105C000EC4
:100BB000115802E30101FD6B12008B94010EE66EE9
:100BC0005DEC0EF0E552BB0EE66E96EC0DF0E552D4
:100BD000C7A0FED718EC0EF0E66E01018A518A2BF1
:100BE000EA6A8B0FE96E010EEA22E552E750EF6EDA
:100BF0008B84010EE66E5DEC0EF0E5528B94010ED7
:100C0000E66E5DEC0EF0E552BC0EE66E96EC0DF075
:100C1000E552C7A0FED718EC0EF0E66E01018A512E
:100C20008A2BEA6A8B0FE96E010EEA22E552E75041
:100C3000EF6E8B84010EE66E5DEC0EF0E5528B9448
:100C4000010EE66E5DEC0EF0E552BD0EE66E96EC22
:100C50000DF0E552C7A0FED718EC0EF0E66E0101CC
:100C60008A518A2BEA6A8B0FE96E010EEA22E5525D
:100C7000E750EF6E8B84010EE66E5DEC0EF0E552F0
:100C80008B94010EE66E5DEC0EF0E552BE0EE66E44
:100C900096EC0DF0E552C7A0FED718EC0EF0E66E0C
:100CA00001018A518A2BEA6A8B0FE96E010EEA2252
:100CB000E552E750EF6E8B84010EE66E5DEC0EF0B0
:100CC000E5528B94010EE66E5DEC0EF0E552BF0E20
:100CD000E66E96EC0DF0E552C7A0FED718EC0EF0CC
:100CE000E66E01018A518A2BEA6A8B0FE96E010ECA
:100CF000EA22E552E750EF6E8B84010EE66E5DEC62
:100D00000EF0E5528B94010EE66E5DEC0EF0E552AE
:100D1000C00EE66E96EC0DF0E552C7A0FED718ECBB
:100D20000EF0E66E01018A518A2BEA6A8B0FE96E9A
:100D3000010EEA22E552E750EF6E8B84010EE66E5B
:100D40005DEC0EF0E5528B94010EE66E5DEC0EF05C
:100D5000E552C30EE66E96EC0DF0E552C7A0FED745
:100D600018EC0EF0E66E01018A518A2BEA6A8B0FAD
:100D7000E96E010EEA22E552E750EF6E8B84010E18
:100D8000E66E5DEC0EF0E5528B94010EE66E5DECC6
:100D90000EF0E552C40EE66E96EC0DF0E552C7A0DB
:100DA000FED718EC0EF0E66E01018A518A2BEA6A32
:100DB0008B0FE96E010EEA22E552E750EF6E8B844D
:100DC000010EE66E5DEC0EF0E5528B94010EE66EC0
:100DD0005DEC0EF0E552C50EE66E96EC0DF0E552B8
:100DE000C7A0FED718EC0EF0E66E01018A518A2BDF
:100DF000EA6A8B0FE96E010EEA22E552E750EF6EC8
:100E00008B84010EE66E5DEC0EF0E5528B94010EC4
:100E1000E66E5DEC0EF0E552C60EE66E96EC0DF059
:100E2000E552C7A0FED718EC0EF0E66E01018A511C
:100E30008A2BEA6A8B0FE96E010EEA22E552E7502F
:100E4000EF6E8B84010EE66E5DEC0EF0E5528B9436
:100E5000010EE66E5DEC0EF0E552C70EE66E96EC06
:100E60000DF0E552C7A0FED718EC0EF0E66E0101BA
:100E70008A518A2BEA6A8B0FE96E010EEA22E5524B
:100E8000E750EF6E8B84010EE66E5DEC0EF0E552DE
:100E90008B94010EE66E5DEC0EF0E552C80EE66E28
:100EA00096EC0DF0E552C7A0FED718EC0EF0E66EFA
:100EB00001018A518A2BEA6A8B0FE96E010EEA2240
:100EC000E552E750EF6E8B84010EE66E5DEC0EF09E
:100ED000E552120001018991ACA2FED7AA0EAD6EB7
:100EE000ACA2FED798C0ADFFACA2FED7380EAD6E57
:100EF000340E01018A5D15E20B6B340E0B5D0EE2C0
:100F0000ACA2FED7340E01010B25EA6A8B0FE96E05
:100F1000010EEA22EF50AD6E0B2BEFD7ACA2FED73D
:100F200013D00B6B340E0B5D0DE2ACA2FED70101AA
:100F30000B51EA6A8B0FE96E010EEA22EF50AD6E9B
:100F40000B2BF0D7ACA2FED7AB0EAD6E1200D9CFF3
:100F5000E6FFE1CFD9FFACA2FED7AA0EAD6EACA2E0
:100F6000FED7800EAD6EACA2FED7FE0EDB50AD6E8E
:100F7000ACA2FED7FE0EDB50800FAD6EACA2FED74A
:100F8000AB0EAD6EE552E7CFD9FF1200D9CFE6FF29
:100F9000E552E7CFD9FF1200D9CFE6FFE1CFD9FF65
:100FA000FE0EDBCF10F0105001017A27000E7B23DC
:100FB0007C237D23010E056A8225046E8351052260
:100FC000066A076A096A100E0A6E0B6A0C6A49EC17
:100FD0000CF0005001017A5D01507B5902507C59A0
:100FE00003507D5940E3010E82257A6F000E832164
:100FF0007B6F7C6B7D6B0C0ED8907A377B377C37A0
:101000007D37E806F9E1D880000E01017A55000E1F
:101010007B55000E7C55020E7D5504E27A6B7B6B8E
:101020007C6B7D6B080E601508080DE17AC1E6FF48
:101030007BC1E6FF7CC1E6FF7DC1E6FFA5DCE55292
:10104000E552E552E5520101822B000E8323FF0E8B
:10105000D88082551F0E835506E2826B836B7A6BB4
:101060007B6B7C6B7D6BE552E7CFD9FF1200D39E83
:10107000B88250D866D801015F0501E1FCD702D8DB
:1010800003001200B60E106E190E116E126A10C017
:10109000E6FFE66E12C0E6FF0E0EE66E010EE66E8D
:1010A00005EC0DF0136E050EE15E13500E0EE66EAC
:1010B000010EE66E1EEC0DF0E552E552F3CF0DF198
:1010C0000101F3500D2BEA6A0E0FE96E010EEA22C0
:1010D0000D0EEF6E0D510D2BEA6A0E0FE96E010E2B
:1010E000EA220A0EEF6E0B6B0D510B5D0DE20B51F8
:1010F000EA6A0E0FE96E010EEA22EF50AD6EACA265
:10110000FED701010B2BF0D70A0EE66E2FEC0EF086
:10111000E55212008B946B0EE66E96EC0DF0E552E4
:101120000A0EE66E2FEC0EF0E552400EE66E96ECDF
:101130000DF0E5528B840A0EE66E2FEC0EF0E552B0
:1011400012008A98B90EE66E78EC0DF0E5528A88A6
:101150000A0EE66E2FEC0EF0E55212000101866BCE
:10116000876B0E0EE66E100EE66EAB0EE66E81EC31
:101170000CF0E552E552E5520F0EC16E79EC0EF01F
:1011800071EC0EF00009FCE168EC0EF0F3CF86F193
:10119000F4CF87F10101886BF43412E286518408A0
:1011A000030E87550DE20B6B060E0B5D59E2827242
:1011B000640EE66EEAEC0DF0E55201010B2BF4D75C
:1011C000873526E28651BC08020E875521E2873515
:1011D00004E286518408030E87551AE30B6B040E54
:1011E0000B5D09E28272640EE66EEAEC0DF0E552E8
:1011F00001010B2BF4D70B6B020E0B5D31E28078F3
:10120000640EE66EEAEC0DF0E55201010B2BF4D70B
:1012100087352AE28651F408010E875525E2873585
:1012200004E28651BC08020E87551EE30B6B020ECA
:101230000B5D09E28272640EE66EEAEC0DF0E55297
:1012400001010B2BF4D70B6B040E0B5D09E28078C8
:10125000640EE66EEAEC0DF0E55201010B2BF4D7BB
:101260008282010E886F0FD00B6B060E0B5D09E2B8
:101270008078640EE66EEAEC0DF0E55201010B2B6E
:0A128000F4D78088886B76EF0EF03B
:06128A000100091A00003A
:08129000FD0100000100000057
:081298000001976B978FCF6BEB
:1012A0001200D9CFE6FFE1CFD9FFE652FE0EDB50A8
:1012B000AB0A19E0040A0CE0050A04E0000197AF4C
:1012C00064D01DD00001606B616B966B976B7FD013
:1012D00000019751800B03E19751100B02E09785B5
:1012E00076D0978974D000019751800B08E1615145
:1012F000106E116A010E105C000E115802E2978305
:1013000066D060C096F0DF6A6105DF5C2EE2DF50D8
:10131000EA6A620FE96E000EEA22EF50AA0812E0B4
:10132000DF50EA6A620FE96E000EEA22EF50AB0866
:1013300009E0DF50EA6A620FE96E000EEA22EF5020
:10134000AF0809E1DF50EA6A620FE96E000EEA2297
:10135000EF507F0B07D0DF50EA6A620FE96E000E94
:10136000EA22EF509627DF2ACFD7000161076151AB
:10137000EA6A620FE96E000EEA22EF50965D02E023
:10138000978725D0978F978D22D09751106E116A2D
:101390001050111008E1978BFE0EDBCF60F097A97B
:1013A00016D0608F13D0612B6105EA6A620FE96E77
:1013B000000EEA22FE0EDBCFEFFF97A908D06105F1
:1013C000EA6A620FE96E000EEA22EF8E9799E55203
:1013D000E552E7CFD9FF1200D9CFE6FFE1CFD9FF21
:1013E000E652ACA2FED7AA0EAD6EACA2FED7C70ED7
:1013F000DB50AD6EACA2FED7380EAD6EDF6AC80E04
:10140000DB50DF5C12E2ACA2FED7D950C90F106EE0
:10141000FF0EDA20116EDF501024E96E000E11204D
:10142000EA6EEF50AD6EDF2AEAD7ACA2FED7AB0E64
:10143000AD6EFE0EDB9CE552E552E7CFD9FF120000
:10144000D9CFE6FFE1CFD9FFE6520001AA0E9A6F8D
:10145000FD0EDBCFE9FFFE0EDBCFEAFFEF50AA085F
:1014600001E1F5D0FD0EDBCFE9FFFE0EDBCFEAFF99
:10147000EF50AB0801E1EBD0FD0EDBCFE9FFFE0E34
:10148000DBCFEAFFEF50AF0801E1E1D0FD0EDBCF8B
:10149000E9FFFE0EDBCFEAFFEFCF98F0FD0EDBCFCA
:1014A000E9FFFE0EDBCFEAFFEFCF9BF0020E996F54
:1014B000FD0EDBCFE9FFFE0EDBCFEAFFEFCFCEF074
:1014C000DF6AFD0EDBCFE9FFFE0EDBCFEAFFEE5257
:1014D000EF04DF5C01E38DD0FD0EDBCFE9FFFE0EF4
:1014E000DBCFEAFF020EE926000EEA22DF500F01F1
:1014F000E924E96E000EEA20EA6EEF50AA0826E021
:10150000FD0EDBCFE9FFFE0EDBCFEAFF020EE92680
:10151000000EEA22DF50E924E96E000EEA20EA6EAE
:10152000EF50AB0813E0FD0EDBCFE9FFFE0EDBCF83
:10153000EAFF020EE926000EEA22DF50E924E96EF6
:10154000000EEA20EA6EEF50AF081EE1000199514B
:10155000992BEA6A9A0FE96E000EEA22AF0EEF6E3F
:10156000995175E0FD0EDBCFE9FFFE0EDBCFEAFF00
:10157000020EE926000EEA22DF500F01E924E96E8F
:10158000000EEA20EA6EEF9EFD0EDBCFE9FFFE0EB5
:10159000DBCFEAFF020EE926000EEA22DF50E92443
:1015A000E96E000EEA20EA6EEF50E66E00019951F6
:1015B000992BEA6A9A0FE96E000EEA22E552E7508B
:1015C000EF6E995144E0FD0EDBCFE9FFFE0EDBCF5D
:1015D000EAFF020EE926000EEA22DF500F01E9249D
:1015E000E96E000EEA20EA6EEF500001CE27DF2AF6
:1015F00068D7AA0ECE5D06E0AB0ECE5D03E0AF0E5F
:10160000CE5D0AE19951992BEA6A9A0FE96E000EB4
:10161000EA22AF0EEF6ECE9F9951992BEA6A9A0F8C
:10162000E96E000EEA22CEC0EFFF9951992BEA6ACB
:101630009A0FE96E000EEA22AB0EEF6E9951106E12
:10164000116A040E105C000E115801E3CF8DE552B3
:08165000E552E7CFD9FF1200BB
:0816580001017A6B7B6B7C6BD6
:101660007D6B7AC17EF17BC17FF17CC180F17DC150
:1016700081F1826B836B82C184F183C185F10A5150
:101680005F6B606B100E086F096BE66E09C1E6FFB9
:101690007C0EE66ED4EC0BF0E552E552E552708616
:1016A000CD80D58E01015F5102E16051FBE05F0505
:1016B00010E108C1E6FF09C1E6FF580EE66E10EC26
:1016C0000CF0E552E552E552B8860101606B6051BD
:1016D000FEE0010188050AE1030E60150308F9E147
:1016E0008951010BF6E06AEC07F0F3D7CD904F0E6D
:1016F000AB16AC9ACF0E9D164F0E7116729ACF0E86
:0A170000A316C69A6C9A76EF0EF05D
:06170A008A0EF66E120EBD
:10171000F76E000EF86E01010900F550F86F090030
:10172000F550F96F03E1F86701D03DD00900F5509D
:10173000F36F0900F550F46F0900F550F56F0900DB
:101740000900F550E96E0900F550EA6E090009003C
:101750000900F550F66F0900F550F76F0900090010
:10176000F6CFFAF1F7CFFBF1F8CFFCF1F3C1F6FFBA
:10177000F4C1F7FFF5C1F8FF0101F65302E1F75399
:1017800007E00900F550EE6EF607F8E2F707F9D723
:10179000FAC1F6FFFBC1F7FFFCC1F8FF0101F80732
:0817A000000EF95BBFD7120037
:0817A800D9CFE6FFDACFE6FF1E
:1017B000E1CFD9FFE2CFDAFF726A716AFD0EDBB0CA
:1017C0007288DBA202D0728C718CDBB4728EDBA6C5
:1017D00002D0718801D0718ADBA802D0728401D056
:1017E0007294DBBA7186DBAC02D0A38A01D0A39AD3
:1017F000DBAE02D0A38801D0A398FB0EDB50756E40
:10180000FC0EDBCF11F011C010F0116A1050766E93
:10181000728A718EE552E5CFDAFFE7CFD9FF120069
:10182000D9CFE6FFDACFE6FFE1CFD9FFE2CFDAFF8B
:10183000AC6AAB6AFD0EDBB0AC88DBA202D0AC8C2C
:10184000AB8CDBB4AC8EDBA602D0AB8801D0AB8A0C
:10185000DBB8AC84DBBAAB86DBAC02D09D8A01D0AE
:101860009D9ADBAE02D09D8801D09D98FB0EDB5087
:10187000AF6EFC0EDBCF11F011C010F0116A1050EA
:10188000B06EAC8AAB8EE552E5CFDAFFE7CFD9FF79
:02189000120044
:0E18920004500902F3CF00F0F4CF01F00A0277
:1018A000F3500126000EF420026E04500B02F35098
:1018B0000226000EF420036E04500C02F35003269F
:1018C00005500902F3500126F4500222000E0322B3
:1018D00005500A02F3500226F450032205500B0271
:1018E000F350032606500902F3500226F450032257
:1018F00006500A02F350032607500902F35003264C
:021900001200D3
:0E190200D9CFE6FFDACFE6FFE1CFD9FFE2CF83
:10191000DAFFC26AC16AC06AFC0EDB507C0BC26E81
:10192000FB0EDB50C16EFD0EDB50040DF350380B87
:10193000116EFD0EDB380F0B070B106EFD0EDB502A
:10194000800B10101110C06EFC0EDBAE03D09E9CFD
:101950009D8CF28CC280E552E5CFDAFFE7CFD9FF4C
:02196000120073
:0E196200D9CFE6FFDACFE6FFE1CFD9FFE2CF23
:10197000DAFFFC0EDB50F30BCC6EFD0EDB507F0B61
:10198000E824CD6ECF6ACE6A9E90FD0EDBAE02D00B
:101990009D8001D09D90A490FC0EDBA402D0A3807A
:1019A00001D0A390CCBECC86CD80E552E5CFDAFF46
:0619B000E7CFD9FF120091
:0A19B60053455420534C45455000A2
:1019C0005345540053455420434F4E54524F4C20DE
:1019D00042415544203233303430302C384E3100BF
:1019E00053455420434F4E54524F4C2043442034CF
:1019F0002030005345542042542041555448202A59
:091A00002031323334004154005E
:011A090003D9
:061A0A00FB0EE3CFF6FF26
:101A1000FC0EE3CFF7FFFD0EE3CFF8FFFE0EE3CFA2
:101A2000E9FFFF0EE3CFEAFFE9CFF3FFEACFF4FFD0
:101A30000900F5CFEFFFEE66FBD71200FE0EE3CFF5
:101A4000E9FFFF0EE3CFEAFFF36AF46AEE5203E028
:081A5000F34AF42AFBD712004F
:081A5800D9CFE6FFDACFE6FF6B
:101A6000E1CFD9FFE2CFDAFF3F0E6D166C6AFD0EB3
:101A7000DB506C12FB0EDB506D12FC0EDB50030AC8
:101A800009E0010A04E0020A06E16D8C04D06D8CC5
:101A90006C8801D06C886C8AE552E5CFDAFFE7CF1D
:041AA000D9FF120058
:0C1AA400D9CFE6FFDACFE6FFE1CFD9FF93
:101AB000E2CFDAFF3F0EC716C66AFD0EDB50C61234
:101AC000FB0EDB50C712FC0EDB50030A09E0010AD3
:101AD00004E0020A06E1C78C04D0C78CC68801D096
:101AE000C688C68AE552E5CFDAFFE7CFD9FF1200F4
:101AF000D9CFE6FFDACFE6FFE1CFD9FFE2CFDAFFB9
:101B0000E6526F50DF6EA49E6C9EFD0EDB506F6E32
:101B10006CAE02D0FF0E03D0A4AEFED7000EE5528D
:0C1B2000E552E5CFDAFFE7CFD9FF120055
:041B2C00D9CFE6FF28
:101B3000DACFE6FFE1CFD9FFE2CFDAFFE652C950B4
:101B4000DF6E9E96C69EFD0EDB50C96EC6AE02D0FD
:101B5000FF0E03D09EA6FED7000EE552E552E5CF5C
:081B6000DAFFE7CFD9FF120004
:081B6800D9CFE6FFDACFE6FF5A
:101B7000E1CFD9FFE2CFDAFFFD0EDB507F0BD56E50
:101B8000D76AD66AF294FD0EDBAE02D0F28A01D09B
:101B9000F29AD58EE552E5CFDAFFE7CFD9FF1200F2
:101BA000536F6D6E6F536F756E6400566572736917
:101BB0006F6E20302E310032362E205365707465E2
:101BC0006D62657220323031340048532D554C4DD2
:041BD00000434B0083
:0C1BD400FF0EE350176EEF0E01D0F30E71
:101BE000E76EE72EF1EF0DF00C0E166EE76AE72EAA
:101BF000F7EF0DF0162EF6EF0DF0172EEFEF0DF0BC
:021C00001200D0
:0E1C0200D9CFE6FFDACFE6FFE1CFD9FFE2CF80
:101C1000DAFFE6526F50DF6EA49E6F6AA4AEFED765
:101C20006F50E552E552E5CFDAFFE7CFD9FF12005A
:101C3000D9CFE6FFDACFE6FFE1CFD9FFE2CFDAFF77
:101C4000E652C950DF6E9E96C96A9EA6FED7C9505D
:0E1C5000E552E552E5CFDAFFE7CFD9FF1200EB
:021C5E00FF0E77
:101C6000E350176E480E01D04C0EE76EE72EFED7FC
:0E1C7000E76AE72EFED7172EF7D70000120006
:021C7E00000E56
:101C8000F36E00EE00F0030E01D81200EA6002D0FD
:0E1C9000EE6AFCD7F350E9601200EE6AFCD752
:021C9E0012EE44
:101CA00000F022EE00F0F86A0F9C85EC0BF09DEC42
:0A1CB00000F02CEC0BF0FBD7120043
:061CBA00FF0EE350E84EAE
:101CC0001200000000D000D000D0E82EFAD7120099
:101CD000C450136E126AC3501210F36E13C0F4FF97
:021CE0001200F0
:0A1CE200C250020B01E0010E1200D7
:041CEC00C2909D9C69
:021CF0001200E0
:041CF200C282120098
:020000040030CA
:0100010028D6
:0100020019E4
:010003003CC0
:01000500BD3D
:0100060001F8
:00000001FF
