:020000040000FA
:06000000CDEF0BF0120031
:080008009D50400B0CE09E50DE
:10001000400B09E00001E90505E18150200B02E0F9
:100020004AEC00F09E9C9E50200B2BE09D50200B34
:1000300028E09E9AAE50E66E5EEC07F0E5520001B5
:1000400000019951800B1DE0000100016051800BFF
:1000500018E0030E0001625D00E10001010EE96F8E
:100060000001625100E1010EE66EFDEC02F0E55286
:100070000F0E0001625D00E1CA0EE66EFDEC02F0BB
:06008000E5521100120020
:0A0086000100F2170000E600000080
:040090000300000069
:0C0094001FD8280E0101085D03E05E0E7D
:1000A000085D04E30E0E08270001EA89360E0101FF
:1000B000085D04E10001EAB1EA83EA816C0E010106
:1000C000085D07E30001EAB1EA830101086B000162
:1000D000EA81120001010851082BEA6A090FE96E52
:1000E000010EEA22C4CFEFFF0851082BEA6A090F7C
:1000F000E96E010EEA22C3CFEFFF120001010851A1
:10010000082BEA6A090FE96E010EEA22E6C0EFFF4A
:100110000851082BEA6A090FE96E010EEA22E6C0CF
:10012000EFFF120001010851082BEA6A090FE96E7E
:10013000010EEA22E6C0EFFF0851082BEA6A090F18
:10014000E96E010EEA22E6C0EFFF0851082BEA6AC9
:10015000090FE96E010EEA22E6C0EFFF0851082BF5
:10016000EA6A090FE96E010EEA22E6C0EFFF0851C4
:10017000082BEA6A090FE96E010EEA22E6C0EFFFDA
:100180000851082BEA6A090FE96E010EEA22E6C05F
:10019000EFFF0851082BEA6A090FE96E010EEA2207
:1001A000E6C0EFFF0851082BEA6A090FE96E010E5D
:1001B000EA22E6C0EFFF0851082BEA6A090FE96E50
:1001C000010EEA22E6C0EFFF0851082BEA6A090F88
:1001D000E96E010EEA22E6C0EFFF0851082BEA6A39
:1001E000090FE96E010EEA22E6C0EFFF0851082B65
:1001F000EA6A090FE96E010EEA22E6C0EFFFE6C0E7
:1002000000F0016A00BE0168D890015004E6FF0EBC
:10021000005C000E015802E30001E66B12000001D1
:10022000E251E22BEA6A090FE96E010EEA22E7C009
:10023000EFFFE251E22BEA6A090FE96E010EEA22B2
:10024000E8C0EFFF0001E72B000EE8231200360E96
:100250000101085D03E200015E0E02D00001280EDC
:10026000E26F8B94010EE66EDBEC0BF0E552BB0EF9
:10027000E66E2BEC0BF0E552C7A0FED796EC0BF028
:10028000E66E0001E251E22BEA6A090FE96E010E07
:10029000EA22E552E750EF6E8B84010EE66EDBEC4E
:1002A0000BF0E5528B94010EE66EDBEC0BF0E552A1
:1002B000BC0EE66E2BEC0BF0E552C7A0FED796EC19
:1002C0000BF0E66E0001E251E22BEA6A090FE96EDB
:1002D000010EEA22E552E750EF6E8B84010EE66EC6
:1002E000DBEC0BF0E5528B94010EE66EDBEC0BF0D1
:1002F000E552BD0EE66E2BEC0BF0E552C7A0FED723
:1003000096EC0BF0E66E0001E251E22BEA6A090F6F
:10031000E96E010EEA22E552E750EF6E8B84010E82
:10032000E66EDBEC0BF0E5528B94010EE66EDBEC37
:100330000BF0E552BE0EE66E2BEC0BF0E552C7A0BB
:10034000FED796EC0BF0E66E0001E251E22BEA6A72
:10035000090FE96E010EEA22E552E750EF6E8B8439
:10036000010EE66EDBEC0BF0E5528B94010EE66EAF
:10037000DBEC0BF0E552BF0EE66E2BEC0BF0E5521A
:10038000C7A0FED796EC0BF0E66E0001E251E22B1F
:10039000EA6A090FE96E010EEA22E552E750EF6EB4
:1003A0008B84010EE66EDBEC0BF0E5528B94010EB4
:1003B000E66EDBEC0BF0E552C00EE66E2BEC0BF0BC
:1003C000E552C7A0FED796EC0BF0E66E0001E251B5
:1003D000E22BEA6A090FE96E010EEA22E552E750C4
:1003E000EF6E8B84010EE66EDBEC0BF0E5528B9426
:1003F000010EE66EDBEC0BF0E552C30EE66E2BEC65
:100400000BF0E552C7A0FED796EC0BF0E66E0001AC
:10041000E251E22BEA6A090FE96E010EEA22E55287
:10042000E750EF6E8B84010EE66EDBEC0BF0E552CD
:100430008B94010EE66EDBEC0BF0E552C40EE66E1B
:100440002BEC0BF0E552C7A0FED796EC0BF0E66E56
:100450000001E251E22BEA6A090FE96E010EEA227D
:10046000E552E750EF6E8B84010EE66EDBEC0BF08D
:10047000E5528B94010EE66EDBEC0BF0E552C50EF7
:10048000E66E2BEC0BF0E552C7A0FED796EC0BF016
:10049000E66E0001E251E22BEA6A090FE96E010EF5
:1004A000EA22E552E750EF6E8B84010EE66EDBEC3C
:1004B0000BF0E5528B94010EE66EDBEC0BF0E5528F
:1004C000C60EE66E2BEC0BF0E552C7A0FED796ECFD
:1004D0000BF0E66E0001E251E22BEA6A090FE96EC9
:1004E000010EEA22E552E750EF6E8B84010EE66EB4
:1004F000DBEC0BF0E5528B94010EE66EDBEC0BF0BF
:10050000E552C70EE66E2BEC0BF0E552C7A0FED706
:1005100096EC0BF0E66E0001E251E22BEA6A090F5D
:10052000E96E010EEA22E552E750EF6E8B84010E70
:10053000E66EDBEC0BF0E5528B94010EE66EDBEC25
:100540000BF0E552C80EE66E2BEC0BF0E552C7A09F
:10055000FED796EC0BF0E66E0001E251E22BEA6A60
:10056000090FE96E010EEA22E552E750EF6E8B8427
:10057000010EE66EDBEC0BF0E55212000001EA9191
:10058000ACA2FED7AA0EAD6EACA2FED79AC0ADFF4C
:10059000ACA2FED73A0EAD6E360E0101085D16E232
:1005A0000101C76B360EC75D0EE2ACA2FED7360E58
:1005B0000101C725EA6A090FE96E010EEA22EF5030
:1005C000AD6EC72BEFD7ACA2FED714D00101C76B1D
:1005D000360EC75D0DE2ACA2FED70101C751EA6A33
:1005E000090FE96E010EEA22EF50AD6EC72BF0D76E
:1005F000ACA2FED7AB0EAD6E1200D9CFE6FFE1CFB5
:10060000D9FFACA2FED7AA0EAD6EACA2FED7800E6B
:10061000AD6EACA2FED7FE0EDB50AD6EACA2FED727
:10062000FE0EDB50800FAD6EACA2FED7AB0EAD6EF2
:10063000E552E7CFD9FF1200D39EB88250D881BAD5
:10064000FED702D803001200B40E006E140E016E25
:10065000026A00C0E6FFE66E02C0E6FF760EE66EB6
:10066000010EE66EB9EC0AF0036E050EE15E035072
:10067000760EE66E010EE66ED2EC0AF0E552E55219
:10068000F3CF75F10101F350752BEA6A760FE96E2D
:10069000010EEA220D0EEF6E7551752BEA6A760F88
:1006A000E96E010EEA220A0EEF6E0101C76B01012D
:1006B00075510101C75D0DE2C751EA6A760FE96E17
:1006C000010EEA22EF50AD6EACA2FED70101C72B9E
:1006D000EED70A0EE66EADEC0BF0E55212008B94ED
:1006E0006B0EE66E2BEC0BF0E5520A0EE66EADECEF
:1006F0000BF0E552400EE66E2BEC0BF0E5528B84CE
:100700000A0EE66EADEC0BF0E55212004F0EAB1682
:10071000AC9ACF0E9D164F0E7116729ACF0EA3167D
:10072000C69A6C9AF4EF0BF00001E36BE46B0E0ECB
:10073000E66E100EE66EAB0EE66E5FEC0AF0E5526A
:10074000E552E5520F0EC16EF7EC0BF0EFEC0BF03B
:100750000009FCE1E6EC0BF0F3CFE3F0F4CFE4F0BA
:100760000001E56BF43413E2E3518408030EE45511
:100770000EE20101C76B060EC75D5BE28272640E7A
:10078000E66E7FEC0BF0E5520101C72BF4D7E435A0
:1007900027E2E351BC08020EE45522E2E43504E20C
:1007A000E3518408030EE4551BE30101C76B040EFB
:1007B000C75D09E28272640EE66E7FEC0BF0E552D3
:1007C0000101C72BF4D7C76B020EC75D32E28078F8
:1007D000640EE66E7FEC0BF0E5520101C72BF4D7F7
:1007E000E4352CE2E351F408010EE45527E2E43548
:1007F00004E2E351BC08020EE45520E30101C76B9B
:10080000020EC75D09E28272640EE66E7FEC0BF0A9
:10081000E5520101C72BF4D7C76B040EC75D09E28F
:100820008078640EE66E7FEC0BF0E5520101C72B79
:10083000F4D782820001010EE56F11D00101C76B70
:10084000060EC75D09E28078640EE66E7FEC0BF061
:10085000E5520101C72BF4D780880001E56BF4EF66
:020860000BF09B
:0E086200700ED36E0F01210E386F926E396B3F
:10087000A50E936E618E618C3A6B900E946E82928F
:10088000829080980001EA6B0101086B00019A8157
:100890009A839A959A979A999A9F9A8B0DD894ECE5
:1008A00003F047D874D84BDA640EE66EADEC0BF06B
:1008B000E55245DA59EF07F09D8CD08EF18CF28825
:1008C000628AF28C9D8AA38A9F8AF28E12000101AD
:1008D000E70E046F056905C102F1E8CF00F105C11B
:1008E000D7FFD66E940EE66E49EC0BF0E552D59E1E
:1008F000120001019C0E066F076907C103F1E8CFE2
:1009000001F107C1CFFFCE6EE66ABB0EE66E8FEC3B
:100910000AF0E552E552CD901200FC0EE66E830E11
:10092000E66EEB0EE66E5FEC0AF0E552E552E5523C
:1009300012007F0EE66E800EE66EEB0EE66E5FEC4A
:100940000AF0E552E552E5527F0EE66E1B0EE66EAA
:100950008FEC0AF0E552E5520F0148954897640E76
:10096000556F566B54815483549554871200100E62
:100970000001EB6FEC6BE66EECC0E6FF580EE66E26
:10098000F3EC09F0E552E552E552B8861200220E6A
:100990000001EB6FEC6B0101946BE66EECC0E6FFBF
:1009A0003C0EE66EF3EC09F0E552E552E552B886EE
:1009B000640EE66EADEC0BF0E552B10E006E140E57
:1009C000016E026A00C0E6FFE66E02C0E6FF760E28
:1009D000E66E010EE66EB9EC0AF0036E050EE15EFE
:1009E0000350760EE66E010EE66ED2EC0AF0E5528A
:1009F000E552F3CF75F10101F350752BEA6A760FDA
:100A0000E96E010EEA220D0EEF6E7551752BEA6A42
:100A1000760FE96E010EEA220A0EEF6E0101C76B36
:100A2000010175510101C75D0DE2C751EA6A760FF8
:100A3000E96E010EEA22EF50AD6EACA2FED70101C5
:100A4000C72BEED7640EE66EADEC0BF0E5529E0EB2
:100A5000006E140E016E026A00C0E6FFE66E02C070
:100A6000E6FF760EE66E010EE66EB9EC0AF0036E56
:100A7000050EE15E0350760EE66E010EE66ED2ECD8
:100A80000AF0E552E552F3CF75F10101F350752BF1
:100A9000EA6A760FE96E010EEA220D0EEF6E7551CD
:100AA000752BEA6A760FE96E010EEA220A0EEF6EE6
:100AB0000101C76B010175510101C75D0DE2C7510D
:100AC000EA6A760FE96E010EEA22EF50AD6EACA233
:100AD000FED70101C72BEED7640EE66EADEC0BF02E
:100AE000E5528B0E006E140E016E026A00C0E6FF26
:100AF000E66E02C0E6FF760EE66E010EE66EB9EC1B
:100B00000AF0036E050EE15E0350760EE66E010EEE
:100B1000E66ED2EC0AF0E552E552F3CF75F1010131
:100B2000F350752BEA6A760FE96E010EEA220D0E7C
:100B3000EF6E7551752BEA6A760FE96E010EEA22A7
:100B40000A0EEF6E0101C76B010175510101C75D0E
:100B50000DE2C751EA6A760FE96E010EEA22EF5004
:100B6000AD6EACA2FED70101C72BEED7640EE66EC8
:100B7000ADEC0BF0E552780E006E140E016E026AB9
:100B800000C0E6FFE66E02C0E6FF760EE66E010EDE
:100B9000E66EB9EC0AF0036E050EE15E0350760EC8
:100BA000E66E010EE66ED2EC0AF0E552E552F3CFA6
:100BB00075F10101F350752BEA6A760FE96E010EAB
:100BC000EA220D0EEF6E7551752BEA6A760FE96E0B
:100BD000010EEA220A0EEF6E0101C76B0101755189
:100BE0000101C75D0DE2C751EA6A760FE96E010E99
:100BF000EA22EF50AD6EACA2FED70101C72BEED7B3
:100C0000640EE66EADEC0BF0E5525C0E006E140E59
:100C1000016E026A00C0E6FFE66E02C0E6FF760ED5
:100C2000E66E010EE66EB9EC0AF0036E050EE15EAB
:100C30000350760EE66E010EE66ED2EC0AF0E55237
:100C4000E552F3CF75F10101F350752BEA6A760F87
:100C5000E96E010EEA220D0EEF6E7551752BEA6AF0
:100C6000760FE96E010EEA220A0EEF6E0101C76BE4
:100C7000010175510101C75D0DE2C751EA6A760FA6
:100C8000E96E010EEA22EF50AD6EACA2FED7010173
:100C9000C72BEED7640EE66EADEC0BF0E552580EA6
:100CA000006E140E016E026A00C0E6FFE66E02C01E
:100CB000E6FF760EE66E010EE66EB9EC0AF0036E04
:100CC000050EE15E0350760EE66E010EE66ED2EC86
:100CD0000AF0E552E552F3CF75F10101F350752B9F
:100CE000EA6A760FE96E010EEA220D0EEF6E75517B
:100CF000752BEA6A760FE96E010EEA220A0EEF6E94
:100D00000101C76B010175510101C75D0DE2C751BA
:100D1000EA6A760FE96E010EEA22EF50AD6EACA2E0
:100D2000FED70101C72BEED7C80EE66EADEC0BF077
:100D3000E5524F0EAB16AC9ACF0E9D1612008B8467
:100D4000E66AE66A010EE66EE0EC0AF0E552E5526C
:100D5000E5520A0EE66EADEC0BF0E5528B946A0E8E
:100D6000E66E2BEC0BF0E5520A0EE66EADEC0BF0E6
:100D7000E552100EE66E2BEC0BF0E5528B840A0E5A
:100D8000E66EADEC0BF0E5528B946B0EE66E2BEC41
:100D90000BF0E5520A0EE66EADEC0BF0E552E66A9A
:100DA0002BEC0BF0E5528B840A0EE66EADEC0BF0EB
:100DB000E5528B94F50EE66E2BEC0BF0E552C7A0D6
:100DC000FED796EC0BF00101C96F8B840A0EE66E1C
:100DD000ADEC0BF0E5528B941B0EE66E2BEC0BF09A
:100DE000E5520A0EE66EADEC0BF0E5520101020E83
:100DF000CA6FE850080DF350E66E2BEC0BF0E5528D
:100E00008B840A0EE66EADEC0BF0E5528B941C0E53
:100E1000E66E2BEC0BF0E5520A0EE66EADEC0BF035
:100E2000E5520101020ECB6FE850080DF350E66E5B
:100E30002BEC0BF0E5528B840A0EE66EADEC0BF05A
:100E4000E5520101CA6B0101CB6B8B949B0EE66EE0
:100E50002BEC0BF0E552C7A0FED796EC0BF0180B6D
:100E6000E840E840E8401F0B0101CA6F8B840A0E7E
:100E7000E66EADEC0BF0E5528B949C0EE66E2BEC1F
:100E80000BF0E552C7A0FED796EC0BF0180BE8402C
:100E9000E840E8401F0B0101CB6F8B84640EE66EC7
:100EA000ADEC0BF0E5520A0EE66EADEC0BF0E55240
:020EB00012002E
:0E0EB2000001996B998FD36B1200D9CFE6FF28
:100EC000E1CFD9FFE652FE0EDB50AB0A19E0040A6F
:100ED0000CE0050A04E0000199AF64D01DD00001C8
:100EE000606B616B986B996B7FD000019951800B9F
:100EF00003E19951100B02E0998576D0998974D05D
:100F000000019951800B08E16151006E016A010EE8
:100F1000005C000E015802E2998366D060C098F030
:100F2000DF6A6105DF5C2EE2DF50EA6A620FE96E7C
:100F3000000EEA22EF50AA0812E0DF50EA6A620FC0
:100F4000E96E000EEA22EF50AB0809E0DF50EA6AD2
:100F5000620FE96E000EEA22EF50AF0809E1DF50A0
:100F6000EA6A620FE96E000EEA22EF507F0B07D0AB
:100F7000DF50EA6A620FE96E000EEA22EF5098270E
:100F8000DF2ACFD7000161076151EA6A620FE96E7B
:100F9000000EEA22EF50985D02E0998725D0998FE4
:100FA000998D22D09951006E016A0050011008E11C
:100FB000998BFE0EDBCF60F099A916D0608F13D00D
:100FC000612B6105EA6A620FE96E000EEA22FE0EED
:100FD000DBCFEFFF99A908D06105EA6A620FE96EDD
:100FE000000EEA22EF8E9999E552E552E7CFD9FF3C
:100FF0001200D9CFE6FFE1CFD9FFE652ACA2FED76F
:10100000AA0EAD6EACA2FED7C50EDB50AD6EC50EFE
:10101000DB50E76EFD0EE7CFDBFFDF6AC60EDB04B9
:10102000DF5C64E2D950C70F006EFF0EDA20016E5C
:10103000DF500024E96E000E0120EA6EEF50AA088E
:101040001EE0D950C70F026EFF0EDA20036EDF508C
:101050000224E96E000E0320EA6EEF50AB080FE0A9
:10106000D950C70F046EFF0EDA20056EDF5004243E
:10107000E96E000E0520EA6EEF50AF0811E1ACA258
:10108000FED7AF0EAD6ED950C70F006EFF0EDA203F
:10109000016EDF500024E96E000E0120EA6EEF9E23
:1010A000ACA2FED7D950C70F006EFF0EDA20016E3A
:1010B000DF500024E96E000E0120EA6EEF50AD6EA5
:1010C000D950C70F006EFF0EDA20016EDF500024EA
:1010D000E96E000E0120EA6EFD0EDBCFE7FFEF5058
:1010E000E726FD0EE7CFDBFFDF2A98D7FD0EDB50AA
:1010F000AA0808E0FD0EDB50AB0804E0FD0EDB5053
:10110000AF0806E1ACA2FED7AF0EAD6EFD0EDB9EC2
:10111000ACA2FED7FD0EDB50AD6EACA2FED7AB0E7F
:10112000AD6EFE0EDB9CE552E552E7CFD9FF120013
:10113000D9CFE6FFE1CFD9FFE6520001AA0E9C6F9E
:10114000FD0EDBCFE9FFFE0EDBCFEAFFEF50AA0872
:1011500001E1F5D0FD0EDBCFE9FFFE0EDBCFEAFFAC
:10116000EF50AB0801E1EBD0FD0EDBCFE9FFFE0E47
:10117000DBCFEAFFEF50AF0801E1E1D0FD0EDBCF9E
:10118000E9FFFE0EDBCFEAFFEFCF9AF0FD0EDBCFDB
:10119000E9FFFE0EDBCFEAFFEFCF9DF0020E9B6F63
:1011A000FD0EDBCFE9FFFE0EDBCFEAFFEFCFD2F083
:1011B000DF6AFD0EDBCFE9FFFE0EDBCFEAFFEE526A
:1011C000EF04DF5C01E38DD0FD0EDBCFE9FFFE0E07
:1011D000DBCFEAFF020EE926000EEA22DF500F0104
:1011E000E924E96E000EEA20EA6EEF50AA0826E034
:1011F000FD0EDBCFE9FFFE0EDBCFEAFF020EE92694
:10120000000EEA22DF50E924E96E000EEA20EA6EC1
:10121000EF50AB0813E0FD0EDBCFE9FFFE0EDBCF96
:10122000EAFF020EE926000EEA22DF50E924E96E09
:10123000000EEA20EA6EEF50AF081EE100019B515C
:101240009B2BEA6A9C0FE96E000EEA22AF0EEF6E4E
:101250009B5175E0FD0EDBCFE9FFFE0EDBCFEAFF11
:10126000020EE926000EEA22DF500F01E924E96EA2
:10127000000EEA20EA6EEF9EFD0EDBCFE9FFFE0EC8
:10128000DBCFEAFF020EE926000EEA22DF50E92456
:10129000E96E000EEA20EA6EEF50E66E00019B5107
:1012A0009B2BEA6A9C0FE96E000EEA22E552E7509A
:1012B000EF6E9B5144E0FD0EDBCFE9FFFE0EDBCF6E
:1012C000EAFF020EE926000EEA22DF500F01E924B0
:1012D000E96E000EEA20EA6EEF500001D227DF2A05
:1012E00068D7AA0ED25D06E0AB0ED25D03E0AF0E6A
:1012F000D25D0AE19B519B2BEA6A9C0FE96E000EBE
:10130000EA22AF0EEF6ED29F9B519B2BEA6A9C0F95
:10131000E96E000EEA22D2C0EFFF9B519B2BEA6AD6
:101320009C0FE96E000EEA22AB0EEF6E9B51006E31
:10133000016A040E005C000E015801E3D38DE552F2
:08134000E552E7CFD9FF1200CE
:08134800860EF66E000EF76E32
:10135000000EF86E00010900F550D96F0900F55034
:10136000DA6F03E1D96701D03DD00900F550D46FA1
:101370000900F550D56F0900F550D66F0900090036
:10138000F550E96E0900F550EA6E09000900090000
:10139000F550D76F0900F550D86F09000900F6CF56
:1013A000DBF0F7CFDCF0F8CFDDF0D4C0F6FFD5C02E
:1013B000F7FFD6C0F8FF0001D75302E1D85307E08A
:1013C0000900F550EE6ED707F8E2D807F9D7DBC071
:1013D000F6FFDCC0F7FFDDC0F8FF0001D907000E03
:0613E000DA5BBFD712002A
:0A13E600D9CFE6FFDACFE6FFE1CF32
:1013F000D9FFE2CFDAFFAC6AAB6AFD0EDBB0AC8896
:10140000DBA202D0AC8CAB8CDBB4AC8EDBA602D002
:10141000AB8801D0AB8ADBB8AC84DBBAAB86DBAC83
:1014200002D09D8A01D09D9ADBAE02D09D8801D06A
:101430009D98FB0EDB50AF6EFC0EDBCF01F001C0C0
:1014400000F0016A0050B06EAC8AAB8EE552E5CF79
:08145000DAFFE7CFD9FF12001B
:08145800534554005345542094
:10146000434F4E54524F4C2042415544203233306A
:101470003430302C384E310053455420434F4E54B5
:10148000524F4C20434420342030005345542042D6
:10149000542041555448202A2031323334005345DA
:1014A00054204254204E414D4520536F6D6E6F3194
:0E14B0000041540053455420534C4545500014
:0214BE00D9CF84
:1014C000E6FFDACFE6FFE1CFD9FFE2CFDAFFC26A6B
:1014D000C16AC06AFC0EDB507C0BC26EFB0EDB5097
:1014E000C16EFD0EDB50040DF350380B016EFD0E86
:1014F000DB380F0B070B006EFD0EDB50800B00106E
:101500000110C06EFC0EDBAE03D09E9C9D8CF28C55
:0E151000C280E552E5CFDAFFE7CFD9FF120027
:02151E00D9CF23
:10152000E6FFDACFE6FFE1CFD9FFE2CFDAFFFC0E2C
:10153000DB50F30BCC6EFD0EDB507F0BE824CD6E41
:10154000CF6ACE6A9E90FD0EDBAE02D09D8001D0A8
:101550009D90A490FC0EDBA402D0A38001D0A390A8
:10156000CCBECC86CD80E552E5CFDAFFE7CFD9FF00
:02157000120067
:0E157200FB0EE3CFF6FFFC0EE3CFF7FFFD0EFE
:10158000E3CFF8FFFE0EE3CFE9FFFF0EE3CFEAFF64
:10159000E9CFF3FFEACFF4FF0900F5CFEFFFEE66E6
:1015A000FBD71200FE0EE3CFE9FFFF0EE3CFEAFF09
:1015B000F36AF46AEE5203E0F34AF42AFBD712000E
:1015C000D9CFE6FFDACFE6FFE1CFD9FFE2CFDAFFEE
:1015D0003F0EC716C66AFD0EDB50C612FB0EDB506F
:1015E000C712FC0EDB50030A09E0010A04E0020AFC
:1015F00006E1C78C04D0C78CC68801D0C688C68ACD
:0C160000E552E5CFDAFFE7CFD9FF12007A
:04160C00C290000187
:10161000E96B828281BA04D082A0FCD78290FAD78B
:101620008280B7EC04F00001E96BE95103E18150DD
:10163000200BFBE18292C2800001E905E7E18150C5
:10164000200BE4E0EAA1F8D727EC01F00FEC01F061
:06165000BEEC02F0F1D730
:0A165600D9CFE6FFDACFE6FFE1CFBF
:10166000D9FFE2CFDAFFE652C950DF6E9E96C69EE2
:10167000FD0EDB50C96EC6AE02D0FF0E03D09EA693
:10168000FED7000EE552E552E5CFDAFFE7CFD9FFEE
:02169000120046
:0E169200D9CFE6FFDACFE6FFE1CFD9FFE2CFF6
:1016A000DAFFFD0EDB507F0BD56ED76AD66AF29457
:1016B000FD0EDBAE02D0F28A01D0F29AD58EE55251
:0A16C000E5CFDAFFE7CFD9FF1200F3
:0616CA00536F6D6E6F53BB
:1016D0006F756E640056657273696F6E20302E31BF
:1016E0000032362E2053657074656D62657220324B
:0E16F0003031340048532D554C4D00434B0013
:0216FE00FF0EDD
:10170000E350096EEF0E01D0F30EE76EE72E86EF81
:101710000BF00C0E086EE76AE72E8CEF0BF0082E2C
:0C1720008BEF0BF0092E84EF0BF0120091
:04172C00D9CFE6FF2C
:10173000DACFE6FFE1CFD9FFE2CFDAFFE652C950B8
:10174000DF6E9E96C96A9EA6FED7C950E552E55245
:0A175000E5CFDAFFE7CFD9FF120062
:06175A00FF0EE350096ED2
:10176000480E01D04C0EE76EE72EFED7E76AE72E53
:0A177000FED7092EF7D70000120083
:06177A00000EF36E00EE0C
:1017800000F0030E01D81200EA6002D0EE6AFCD726
:0A179000F350E9601200EE6AFCD786
:06179A0012EE00F022EE49
:1017A00000F0F86A079CA4EC09F031EC04F006ECB8
:0617B0000BF0FBD7120054
:0A17B600FF0EE350E84E12000000A1
:0C17C00000D000D000D0E82EFAD71200B4
:0417CC00C450036E94
:0E17D000026AC3500210F36E03C0F4FF120051
:0217DE00C250F7
:0817E000020B01E0010E1200F2
:0617E800C2909D9C12005E
:0217EE00C282B5
:0217F0001200E5
:0317F200030000F1
:020000040030CA
:0100010028D6
:0100020019E4
:010003003CC0
:01000500BD3D
:0100060001F8
:00000001FF
